{
  "address": "0x1f49f78350A0377269b1D0488ee72188B72E4447",
  "abi": [
    {
      "inputs": [
        {
          "internalType": "address",
          "name": "_escrowAddress",
          "type": "address"
        }
      ],
      "stateMutability": "nonpayable",
      "type": "constructor"
    },
    {
      "anonymous": false,
      "inputs": [
        {
          "indexed": false,
          "internalType": "address",
          "name": "escrowAddress",
          "type": "address"
        }
      ],
      "name": "EscrowAddressUpdated",
      "type": "event"
    },
    {
      "anonymous": false,
      "inputs": [
        {
          "indexed": true,
          "internalType": "address",
          "name": "previousOwner",
          "type": "address"
        },
        {
          "indexed": true,
          "internalType": "address",
          "name": "newOwner",
          "type": "address"
        }
      ],
      "name": "OwnershipTransferred",
      "type": "event"
    },
    {
      "anonymous": false,
      "inputs": [
        {
          "indexed": true,
          "internalType": "uint256",
          "name": "escrowId",
          "type": "uint256"
        },
        {
          "indexed": false,
          "internalType": "address",
          "name": "initiator",
          "type": "address"
        },
        {
          "indexed": false,
          "internalType": "address",
          "name": "counter",
          "type": "address"
        },
        {
          "indexed": false,
          "internalType": "address",
          "name": "initiatorToken",
          "type": "address"
        },
        {
          "indexed": false,
          "internalType": "uint256",
          "name": "initiatorAmount",
          "type": "uint256"
        },
        {
          "indexed": false,
          "internalType": "address",
          "name": "counterToken",
          "type": "address"
        },
        {
          "indexed": false,
          "internalType": "uint256",
          "name": "counterAmount",
          "type": "uint256"
        },
        {
          "indexed": false,
          "internalType": "uint256",
          "name": "deadline",
          "type": "uint256"
        },
        {
          "indexed": false,
          "internalType": "enum MultiSwapExtension.EscrowState",
          "name": "state",
          "type": "uint8"
        },
        {
          "indexed": false,
          "internalType": "enum MultiSwapExtension.ExchangeType",
          "name": "initiatorExchange",
          "type": "uint8"
        },
        {
          "indexed": false,
          "internalType": "enum MultiSwapExtension.ExchangeType",
          "name": "counterExchange",
          "type": "uint8"
        }
      ],
      "name": "SwapStateChanged",
      "type": "event"
    },
    {
      "inputs": [
        {
          "internalType": "address",
          "name": "sender",
          "type": "address"
        },
        {
          "internalType": "uint256",
          "name": "escrowId",
          "type": "uint256"
        },
        {
          "internalType": "bytes",
          "name": "data",
          "type": "bytes"
        }
      ],
      "name": "begin",
      "outputs": [
        {
          "internalType": "bool",
          "name": "",
          "type": "bool"
        },
        {
          "internalType": "string",
          "name": "",
          "type": "string"
        }
      ],
      "stateMutability": "nonpayable",
      "type": "function"
    },
    {
      "inputs": [
        {
          "internalType": "address",
          "name": "sender",
          "type": "address"
        },
        {
          "internalType": "bytes",
          "name": "data",
          "type": "bytes"
        }
      ],
      "name": "cancel",
      "outputs": [
        {
          "internalType": "bool",
          "name": "",
          "type": "bool"
        },
        {
          "internalType": "string",
          "name": "",
          "type": "string"
        }
      ],
      "stateMutability": "nonpayable",
      "type": "function"
    },
    {
      "inputs": [
        {
          "internalType": "uint256",
          "name": "",
          "type": "uint256"
        }
      ],
      "name": "cancelledSwaps",
      "outputs": [
        {
          "internalType": "bool",
          "name": "",
          "type": "bool"
        }
      ],
      "stateMutability": "view",
      "type": "function"
    },
    {
      "inputs": [
        {
          "internalType": "address",
          "name": "sender",
          "type": "address"
        },
        {
          "internalType": "bytes",
          "name": "data",
          "type": "bytes"
        }
      ],
      "name": "complete",
      "outputs": [
        {
          "internalType": "bool",
          "name": "",
          "type": "bool"
        },
        {
          "internalType": "string",
          "name": "",
          "type": "string"
        }
      ],
      "stateMutability": "nonpayable",
      "type": "function"
    },
    {
      "inputs": [],
      "name": "escrowAddress",
      "outputs": [
        {
          "internalType": "address",
          "name": "",
          "type": "address"
        }
      ],
      "stateMutability": "view",
      "type": "function"
    },
    {
      "inputs": [
        {
          "internalType": "address",
          "name": "",
          "type": "address"
        },
        {
          "internalType": "address",
          "name": "",
          "type": "address"
        },
        {
          "internalType": "uint256",
          "name": "",
          "type": "uint256"
        },
        {
          "internalType": "bytes",
          "name": "",
          "type": "bytes"
        }
      ],
      "name": "onERC721Received",
      "outputs": [
        {
          "internalType": "bytes4",
          "name": "",
          "type": "bytes4"
        }
      ],
      "stateMutability": "nonpayable",
      "type": "function"
    },
    {
      "inputs": [],
      "name": "owner",
      "outputs": [
        {
          "internalType": "address",
          "name": "",
          "type": "address"
        }
      ],
      "stateMutability": "view",
      "type": "function"
    },
    {
      "inputs": [],
      "name": "renounceOwnership",
      "outputs": [],
      "stateMutability": "nonpayable",
      "type": "function"
    },
    {
      "inputs": [
        {
          "internalType": "bytes4",
          "name": "interfaceId",
          "type": "bytes4"
        }
      ],
      "name": "supportsInterface",
      "outputs": [
        {
          "internalType": "bool",
          "name": "",
          "type": "bool"
        }
      ],
      "stateMutability": "view",
      "type": "function"
    },
    {
      "inputs": [
        {
          "internalType": "uint256",
          "name": "",
          "type": "uint256"
        }
      ],
      "name": "swapStructs",
      "outputs": [
        {
          "internalType": "address",
          "name": "initiator",
          "type": "address"
        },
        {
          "internalType": "address",
          "name": "counter",
          "type": "address"
        },
        {
          "internalType": "address",
          "name": "initiatorToken",
          "type": "address"
        },
        {
          "internalType": "uint256",
          "name": "initiatorAmount",
          "type": "uint256"
        },
        {
          "internalType": "address",
          "name": "counterToken",
          "type": "address"
        },
        {
          "internalType": "uint256",
          "name": "counterAmount",
          "type": "uint256"
        },
        {
          "internalType": "uint256",
          "name": "deadline",
          "type": "uint256"
        },
        {
          "internalType": "enum MultiSwapExtension.ExchangeType",
          "name": "initiatorExchange",
          "type": "uint8"
        },
        {
          "internalType": "enum MultiSwapExtension.ExchangeType",
          "name": "counterExchange",
          "type": "uint8"
        }
      ],
      "stateMutability": "view",
      "type": "function"
    },
    {
      "inputs": [
        {
          "internalType": "address",
          "name": "newOwner",
          "type": "address"
        }
      ],
      "name": "transferOwnership",
      "outputs": [],
      "stateMutability": "nonpayable",
      "type": "function"
    },
    {
      "inputs": [
        {
          "internalType": "address",
          "name": "_escrowAddress",
          "type": "address"
        }
      ],
      "name": "updateEscrowAddress",
      "outputs": [],
      "stateMutability": "nonpayable",
      "type": "function"
    }
  ],
  "transactionHash": "0x5f701ff2249bda231699965be1fb0a097bc1be571b637cfe3b4e2cb0212da319",
  "args": [
    "0x7c60eD34D3d00B8D87Bcc4b889e298cD2721cfd0"
  ],
  "numDeployments": 1,
  "solcInputHash": "60916e0aeecec8d3f58d86ac0dd9ae9b",
  "bytecode": "0x60806040523480156200001157600080fd5b5060405162002c5638038062002c568339818101604052810190620000379190620001df565b80620000586200004c620000a960201b60201c565b620000b160201b60201c565b80600160006101000a81548173ffffffffffffffffffffffffffffffffffffffff021916908373ffffffffffffffffffffffffffffffffffffffff1602179055505060016002819055505062000211565b600033905090565b60008060009054906101000a900473ffffffffffffffffffffffffffffffffffffffff169050816000806101000a81548173ffffffffffffffffffffffffffffffffffffffff021916908373ffffffffffffffffffffffffffffffffffffffff1602179055508173ffffffffffffffffffffffffffffffffffffffff168173ffffffffffffffffffffffffffffffffffffffff167f8be0079c531659141344cd1fd0a4f28419497f9722a3daafe3b4186f6b6457e060405160405180910390a35050565b600080fd5b600073ffffffffffffffffffffffffffffffffffffffff82169050919050565b6000620001a7826200017a565b9050919050565b620001b9816200019a565b8114620001c557600080fd5b50565b600081519050620001d981620001ae565b92915050565b600060208284031215620001f857620001f762000175565b5b60006200020884828501620001c8565b91505092915050565b612a3580620002216000396000f3fe608060405234801561001057600080fd5b50600436106100b45760003560e01c80634f7d85e8116100715780634f7d85e8146101b4578063715018a6146101e55780638da5cb5b146101ef578063aab53d741461020d578063f07459951461023e578063f2fde38b14610276576100b4565b806301ffc9a7146100b95780630d5defa4146100e957806313cd092114610107578063150b7a02146101385780632bd5be7f1461016857806341e59c2814610198575b600080fd5b6100d360048036038101906100ce919061194e565b610292565b6040516100e09190611996565b60405180910390f35b6100f161030c565b6040516100fe91906119f2565b60405180910390f35b610121600480360381019061011c9190611ad4565b610332565b60405161012f929190611bd8565b60405180910390f35b610152600480360381019061014d9190611d38565b6107ac565b60405161015f9190611dca565b60405180910390f35b610182600480360381019061017d9190611de5565b6107c0565b60405161018f9190611996565b60405180910390f35b6101b260048036038101906101ad9190611e12565b6107e0565b005b6101ce60048036038101906101c99190611e3f565b610863565b6040516101dc929190611bd8565b60405180910390f35b6101ed610c32565b005b6101f7610c46565b60405161020491906119f2565b60405180910390f35b61022760048036038101906102229190611e3f565b610c6f565b604051610235929190611bd8565b60405180910390f35b61025860048036038101906102539190611de5565b611023565b60405161026d99989796959493929190611f25565b60405180910390f35b610290600480360381019061028b9190611e12565b61110b565b005b60007ff605b1bd000000000000000000000000000000000000000000000000000000007bffffffffffffffffffffffffffffffffffffffffffffffffffffffff1916827bffffffffffffffffffffffffffffffffffffffffffffffffffffffff1916148061030557506103048261118e565b5b9050919050565b600160009054906101000a900473ffffffffffffffffffffffffffffffffffffffff1681565b60006060600160009054906101000a900473ffffffffffffffffffffffffffffffffffffffff1673ffffffffffffffffffffffffffffffffffffffff163373ffffffffffffffffffffffffffffffffffffffff16146103c6576040517f08c379a00000000000000000000000000000000000000000000000000000000081526004016103bd90612024565b60405180910390fd5b6103ce6111f8565b600084848101906103df919061214e565b9050600073ffffffffffffffffffffffffffffffffffffffff16816040015173ffffffffffffffffffffffffffffffffffffffff16141580156104535750600073ffffffffffffffffffffffffffffffffffffffff16816080015173ffffffffffffffffffffffffffffffffffffffff1614155b610492576040517f08c379a0000000000000000000000000000000000000000000000000000000008152600401610489906121ee565b60405180910390fd5b806000015173ffffffffffffffffffffffffffffffffffffffff168773ffffffffffffffffffffffffffffffffffffffff1614610504576040517f08c379a00000000000000000000000000000000000000000000000000000000081526004016104fb90612280565b60405180910390fd5b428160c001511161054a576040517f08c379a000000000000000000000000000000000000000000000000000000000815260040161054190612312565b60405180910390fd5b61056281604001518260600151898460e00151611245565b806004600088815260200190815260200160002060008201518160000160006101000a81548173ffffffffffffffffffffffffffffffffffffffff021916908373ffffffffffffffffffffffffffffffffffffffff16021790555060208201518160010160006101000a81548173ffffffffffffffffffffffffffffffffffffffff021916908373ffffffffffffffffffffffffffffffffffffffff16021790555060408201518160020160006101000a81548173ffffffffffffffffffffffffffffffffffffffff021916908373ffffffffffffffffffffffffffffffffffffffff1602179055506060820151816003015560808201518160040160006101000a81548173ffffffffffffffffffffffffffffffffffffffff021916908373ffffffffffffffffffffffffffffffffffffffff16021790555060a0820151816005015560c0820151816006015560e08201518160070160006101000a81548160ff021916908360018111156106db576106da611eae565b5b02179055506101008201518160070160016101000a81548160ff0219169083600181111561070c5761070b611eae565b5b0217905550905050857f78c4c65eb1474e450705f84c91298d49ab3337515b2fadf14c6eae242784c316826000015183602001518460400151856060015186608001518760a001518860c0015160018a60e001518b610100015160405161077c9a9998979695949392919061237a565b60405180910390a260016040518060200160405280600081525092509250506107a3611319565b94509492505050565b600063150b7a0260e01b9050949350505050565b60036020528060005260406000206000915054906101000a900460ff1681565b6107e8611323565b80600160006101000a81548173ffffffffffffffffffffffffffffffffffffffff021916908373ffffffffffffffffffffffffffffffffffffffff1602179055507fb2442191962f8c50b10334ee24125a16163923eeef4f44972cbbeef1f9952e028160405161085891906119f2565b60405180910390a150565b60006060600160009054906101000a900473ffffffffffffffffffffffffffffffffffffffff1673ffffffffffffffffffffffffffffffffffffffff163373ffffffffffffffffffffffffffffffffffffffff16146108f7576040517f08c379a00000000000000000000000000000000000000000000000000000000081526004016108ee90612024565b60405180910390fd5b600084848101906109089190611de5565b90506000600460008381526020019081526020016000209050600015156003600084815260200190815260200160002060009054906101000a900460ff16151514610988576040517f08c379a000000000000000000000000000000000000000000000000000000000815260040161097f90612488565b60405180910390fd5b8060000160009054906101000a900473ffffffffffffffffffffffffffffffffffffffff1673ffffffffffffffffffffffffffffffffffffffff168773ffffffffffffffffffffffffffffffffffffffff161480610a3557508060010160009054906101000a900473ffffffffffffffffffffffffffffffffffffffff1673ffffffffffffffffffffffffffffffffffffffff168773ffffffffffffffffffffffffffffffffffffffff16145b610a74576040517f08c379a0000000000000000000000000000000000000000000000000000000008152600401610a6b9061251a565b60405180910390fd5b60016003600084815260200190815260200160002060006101000a81548160ff021916908315150217905550610b098160020160009054906101000a900473ffffffffffffffffffffffffffffffffffffffff1682600301548360000160009054906101000a900473ffffffffffffffffffffffffffffffffffffffff168460070160009054906101000a900460ff166113a1565b817f78c4c65eb1474e450705f84c91298d49ab3337515b2fadf14c6eae242784c3168260000160009054906101000a900473ffffffffffffffffffffffffffffffffffffffff168360010160009054906101000a900473ffffffffffffffffffffffffffffffffffffffff168460020160009054906101000a900473ffffffffffffffffffffffffffffffffffffffff1685600301548660040160009054906101000a900473ffffffffffffffffffffffffffffffffffffffff168760050154886006015460038a60070160009054906101000a900460ff168b60070160019054906101000a900460ff16604051610c0a9a9998979695949392919061237a565b60405180910390a2600160405180602001604052806000815250935093505050935093915050565b610c3a611323565b610c446000611473565b565b60008060009054906101000a900473ffffffffffffffffffffffffffffffffffffffff16905090565b60006060600160009054906101000a900473ffffffffffffffffffffffffffffffffffffffff1673ffffffffffffffffffffffffffffffffffffffff163373ffffffffffffffffffffffffffffffffffffffff1614610d03576040517f08c379a0000000000000000000000000000000000000000000000000000000008152600401610cfa90612024565b60405180910390fd5b60008484810190610d149190611de5565b905060006004600083815260200190815260200160002090508060010160009054906101000a900473ffffffffffffffffffffffffffffffffffffffff1673ffffffffffffffffffffffffffffffffffffffff168773ffffffffffffffffffffffffffffffffffffffff1614610dbf576040517f08c379a0000000000000000000000000000000000000000000000000000000008152600401610db6906125ac565b60405180910390fd5b610e288160040160009054906101000a900473ffffffffffffffffffffffffffffffffffffffff1682600501548360010160009054906101000a900473ffffffffffffffffffffffffffffffffffffffff168460070160019054906101000a900460ff16611245565b610e918160020160009054906101000a900473ffffffffffffffffffffffffffffffffffffffff1682600301548360010160009054906101000a900473ffffffffffffffffffffffffffffffffffffffff168460070160009054906101000a900460ff166113a1565b610efa8160040160009054906101000a900473ffffffffffffffffffffffffffffffffffffffff1682600501548360000160009054906101000a900473ffffffffffffffffffffffffffffffffffffffff168460070160019054906101000a900460ff166113a1565b817f78c4c65eb1474e450705f84c91298d49ab3337515b2fadf14c6eae242784c3168260000160009054906101000a900473ffffffffffffffffffffffffffffffffffffffff168360010160009054906101000a900473ffffffffffffffffffffffffffffffffffffffff168460020160009054906101000a900473ffffffffffffffffffffffffffffffffffffffff1685600301548660040160009054906101000a900473ffffffffffffffffffffffffffffffffffffffff168760050154886006015460028a60070160009054906101000a900460ff168b60070160019054906101000a900460ff16604051610ffb9a9998979695949392919061237a565b60405180910390a2600160405180602001604052806000815250935093505050935093915050565b60046020528060005260406000206000915090508060000160009054906101000a900473ffffffffffffffffffffffffffffffffffffffff16908060010160009054906101000a900473ffffffffffffffffffffffffffffffffffffffff16908060020160009054906101000a900473ffffffffffffffffffffffffffffffffffffffff16908060030154908060040160009054906101000a900473ffffffffffffffffffffffffffffffffffffffff16908060050154908060060154908060070160009054906101000a900460ff16908060070160019054906101000a900460ff16905089565b611113611323565b600073ffffffffffffffffffffffffffffffffffffffff168173ffffffffffffffffffffffffffffffffffffffff1603611182576040517f08c379a00000000000000000000000000000000000000000000000000000000081526004016111799061263e565b60405180910390fd5b61118b81611473565b50565b60007f01ffc9a7000000000000000000000000000000000000000000000000000000007bffffffffffffffffffffffffffffffffffffffffffffffffffffffff1916827bffffffffffffffffffffffffffffffffffffffffffffffffffffffff1916149050919050565b600280540361123c576040517f08c379a0000000000000000000000000000000000000000000000000000000008152600401611233906126aa565b60405180910390fd5b60028081905550565b6000600181111561125957611258611eae565b5b81600181111561126c5761126b611eae565b5b036112a35761129e8230858773ffffffffffffffffffffffffffffffffffffffff16611537909392919063ffffffff16565b611313565b8373ffffffffffffffffffffffffffffffffffffffff166342842e0e8330866040518463ffffffff1660e01b81526004016112e0939291906126ca565b600060405180830381600087803b1580156112fa57600080fd5b505af115801561130e573d6000803e3d6000fd5b505050505b50505050565b6001600281905550565b61132b6115c0565b73ffffffffffffffffffffffffffffffffffffffff16611349610c46565b73ffffffffffffffffffffffffffffffffffffffff161461139f576040517f08c379a00000000000000000000000000000000000000000000000000000000081526004016113969061274d565b60405180910390fd5b565b600060018111156113b5576113b4611eae565b5b8160018111156113c8576113c7611eae565b5b036113fd576113f882848673ffffffffffffffffffffffffffffffffffffffff166115c89092919063ffffffff16565b61146d565b8373ffffffffffffffffffffffffffffffffffffffff166342842e0e3084866040518463ffffffff1660e01b815260040161143a939291906126ca565b600060405180830381600087803b15801561145457600080fd5b505af1158015611468573d6000803e3d6000fd5b505050505b50505050565b60008060009054906101000a900473ffffffffffffffffffffffffffffffffffffffff169050816000806101000a81548173ffffffffffffffffffffffffffffffffffffffff021916908373ffffffffffffffffffffffffffffffffffffffff1602179055508173ffffffffffffffffffffffffffffffffffffffff168173ffffffffffffffffffffffffffffffffffffffff167f8be0079c531659141344cd1fd0a4f28419497f9722a3daafe3b4186f6b6457e060405160405180910390a35050565b6115ba846323b872dd60e01b858585604051602401611558939291906126ca565b604051602081830303815290604052907bffffffffffffffffffffffffffffffffffffffffffffffffffffffff19166020820180517bffffffffffffffffffffffffffffffffffffffffffffffffffffffff838183161783525050505061164e565b50505050565b600033905090565b6116498363a9059cbb60e01b84846040516024016115e792919061276d565b604051602081830303815290604052907bffffffffffffffffffffffffffffffffffffffffffffffffffffffff19166020820180517bffffffffffffffffffffffffffffffffffffffffffffffffffffffff838183161783525050505061164e565b505050565b60006116b0826040518060400160405280602081526020017f5361666545524332303a206c6f772d6c6576656c2063616c6c206661696c65648152508573ffffffffffffffffffffffffffffffffffffffff166117159092919063ffffffff16565b905060008151111561171057808060200190518101906116d091906127c2565b61170f576040517f08c379a000000000000000000000000000000000000000000000000000000000815260040161170690612861565b60405180910390fd5b5b505050565b6060611724848460008561172d565b90509392505050565b606082471015611772576040517f08c379a0000000000000000000000000000000000000000000000000000000008152600401611769906128f3565b60405180910390fd5b6000808673ffffffffffffffffffffffffffffffffffffffff16858760405161179b919061295a565b60006040518083038185875af1925050503d80600081146117d8576040519150601f19603f3d011682016040523d82523d6000602084013e6117dd565b606091505b50915091506117ee878383876117fa565b92505050949350505050565b6060831561185c576000835103611854576118148561186f565b611853576040517f08c379a000000000000000000000000000000000000000000000000000000000815260040161184a906129bd565b60405180910390fd5b5b829050611867565b6118668383611892565b5b949350505050565b6000808273ffffffffffffffffffffffffffffffffffffffff163b119050919050565b6000825111156118a55781518083602001fd5b806040517f08c379a00000000000000000000000000000000000000000000000000000000081526004016118d991906129dd565b60405180910390fd5b6000604051905090565b600080fd5b600080fd5b60007fffffffff0000000000000000000000000000000000000000000000000000000082169050919050565b61192b816118f6565b811461193657600080fd5b50565b60008135905061194881611922565b92915050565b600060208284031215611964576119636118ec565b5b600061197284828501611939565b91505092915050565b60008115159050919050565b6119908161197b565b82525050565b60006020820190506119ab6000830184611987565b92915050565b600073ffffffffffffffffffffffffffffffffffffffff82169050919050565b60006119dc826119b1565b9050919050565b6119ec816119d1565b82525050565b6000602082019050611a0760008301846119e3565b92915050565b611a16816119d1565b8114611a2157600080fd5b50565b600081359050611a3381611a0d565b92915050565b6000819050919050565b611a4c81611a39565b8114611a5757600080fd5b50565b600081359050611a6981611a43565b92915050565b600080fd5b600080fd5b600080fd5b60008083601f840112611a9457611a93611a6f565b5b8235905067ffffffffffffffff811115611ab157611ab0611a74565b5b602083019150836001820283011115611acd57611acc611a79565b5b9250929050565b60008060008060608587031215611aee57611aed6118ec565b5b6000611afc87828801611a24565b9450506020611b0d87828801611a5a565b935050604085013567ffffffffffffffff811115611b2e57611b2d6118f1565b5b611b3a87828801611a7e565b925092505092959194509250565b600081519050919050565b600082825260208201905092915050565b60005b83811015611b82578082015181840152602081019050611b67565b60008484015250505050565b6000601f19601f8301169050919050565b6000611baa82611b48565b611bb48185611b53565b9350611bc4818560208601611b64565b611bcd81611b8e565b840191505092915050565b6000604082019050611bed6000830185611987565b8181036020830152611bff8184611b9f565b90509392505050565b600080fd5b7f4e487b7100000000000000000000000000000000000000000000000000000000600052604160045260246000fd5b611c4582611b8e565b810181811067ffffffffffffffff82111715611c6457611c63611c0d565b5b80604052505050565b6000611c776118e2565b9050611c838282611c3c565b919050565b600067ffffffffffffffff821115611ca357611ca2611c0d565b5b611cac82611b8e565b9050602081019050919050565b82818337600083830152505050565b6000611cdb611cd684611c88565b611c6d565b905082815260208101848484011115611cf757611cf6611c08565b5b611d02848285611cb9565b509392505050565b600082601f830112611d1f57611d1e611a6f565b5b8135611d2f848260208601611cc8565b91505092915050565b60008060008060808587031215611d5257611d516118ec565b5b6000611d6087828801611a24565b9450506020611d7187828801611a24565b9350506040611d8287828801611a5a565b925050606085013567ffffffffffffffff811115611da357611da26118f1565b5b611daf87828801611d0a565b91505092959194509250565b611dc4816118f6565b82525050565b6000602082019050611ddf6000830184611dbb565b92915050565b600060208284031215611dfb57611dfa6118ec565b5b6000611e0984828501611a5a565b91505092915050565b600060208284031215611e2857611e276118ec565b5b6000611e3684828501611a24565b91505092915050565b600080600060408486031215611e5857611e576118ec565b5b6000611e6686828701611a24565b935050602084013567ffffffffffffffff811115611e8757611e866118f1565b5b611e9386828701611a7e565b92509250509250925092565b611ea881611a39565b82525050565b7f4e487b7100000000000000000000000000000000000000000000000000000000600052602160045260246000fd5b60028110611eee57611eed611eae565b5b50565b6000819050611eff82611edd565b919050565b6000611f0f82611ef1565b9050919050565b611f1f81611f04565b82525050565b600061012082019050611f3b600083018c6119e3565b611f48602083018b6119e3565b611f55604083018a6119e3565b611f626060830189611e9f565b611f6f60808301886119e3565b611f7c60a0830187611e9f565b611f8960c0830186611e9f565b611f9660e0830185611f16565b611fa4610100830184611f16565b9a9950505050505050505050565b7f457363726f77457874656e73696f6e3a204f6e6c7920657363726f7720636f6e60008201527f74726163742063616e2063616c6c20746869732066756e6374696f6e00000000602082015250565b600061200e603c83611b53565b915061201982611fb2565b604082019050919050565b6000602082019050818103600083015261203d81612001565b9050919050565b600080fd5b6002811061205657600080fd5b50565b60008135905061206881612049565b92915050565b6000610120828403121561208557612084612044565b5b612090610120611c6d565b905060006120a084828501611a24565b60008301525060206120b484828501611a24565b60208301525060406120c884828501611a24565b60408301525060606120dc84828501611a5a565b60608301525060806120f084828501611a24565b60808301525060a061210484828501611a5a565b60a08301525060c061211884828501611a5a565b60c08301525060e061212c84828501612059565b60e08301525061010061214184828501612059565b6101008301525092915050565b60006101208284031215612165576121646118ec565b5b60006121738482850161206e565b91505092915050565b7f4d756c746953776170457874656e73696f6e3a20746f6b656e732063616e6e6f60008201527f74206265207a65726f2061646472657373000000000000000000000000000000602082015250565b60006121d8603183611b53565b91506121e38261217c565b604082019050919050565b60006020820190508181036000830152612207816121cb565b9050919050565b7f4d756c746953776170457874656e73696f6e3a2073656e646572206d7573742060008201527f626520696e69746961746f72546f6b656e000000000000000000000000000000602082015250565b600061226a603183611b53565b91506122758261220e565b604082019050919050565b600060208201905081810360008301526122998161225d565b9050919050565b7f4d756c746953776170457874656e73696f6e3a20646561646c696e65206d757360008201527f7420626520696e20667574757265000000000000000000000000000000000000602082015250565b60006122fc602e83611b53565b9150612307826122a0565b604082019050919050565b6000602082019050818103600083015261232b816122ef565b9050919050565b6004811061234357612342611eae565b5b50565b600081905061235482612332565b919050565b600061236482612346565b9050919050565b61237481612359565b82525050565b600061014082019050612390600083018d6119e3565b61239d602083018c6119e3565b6123aa604083018b6119e3565b6123b7606083018a611e9f565b6123c460808301896119e3565b6123d160a0830188611e9f565b6123de60c0830187611e9f565b6123eb60e083018661236b565b6123f9610100830185611f16565b612407610120830184611f16565b9b9a5050505050505050505050565b7f4d756c7469537761703a207377617020616c72656164792063616e63656c6c6560008201527f6400000000000000000000000000000000000000000000000000000000000000602082015250565b6000612472602183611b53565b915061247d82612416565b604082019050919050565b600060208201905081810360008301526124a181612465565b9050919050565b7f4d756c7469537761703a2073656e646572206d75737420626520696e6974696160008201527f746f720000000000000000000000000000000000000000000000000000000000602082015250565b6000612504602383611b53565b915061250f826124a8565b604082019050919050565b60006020820190508181036000830152612533816124f7565b9050919050565b7f4d756c7469537761703a2073656e646572206d75737420626520636f756e746560008201527f7200000000000000000000000000000000000000000000000000000000000000602082015250565b6000612596602183611b53565b91506125a18261253a565b604082019050919050565b600060208201905081810360008301526125c581612589565b9050919050565b7f4f776e61626c653a206e6577206f776e657220697320746865207a65726f206160008201527f6464726573730000000000000000000000000000000000000000000000000000602082015250565b6000612628602683611b53565b9150612633826125cc565b604082019050919050565b600060208201905081810360008301526126578161261b565b9050919050565b7f5265656e7472616e637947756172643a207265656e7472616e742063616c6c00600082015250565b6000612694601f83611b53565b915061269f8261265e565b602082019050919050565b600060208201905081810360008301526126c381612687565b9050919050565b60006060820190506126df60008301866119e3565b6126ec60208301856119e3565b6126f96040830184611e9f565b949350505050565b7f4f776e61626c653a2063616c6c6572206973206e6f7420746865206f776e6572600082015250565b6000612737602083611b53565b915061274282612701565b602082019050919050565b600060208201905081810360008301526127668161272a565b9050919050565b600060408201905061278260008301856119e3565b61278f6020830184611e9f565b9392505050565b61279f8161197b565b81146127aa57600080fd5b50565b6000815190506127bc81612796565b92915050565b6000602082840312156127d8576127d76118ec565b5b60006127e6848285016127ad565b91505092915050565b7f5361666545524332303a204552433230206f7065726174696f6e20646964206e60008201527f6f74207375636365656400000000000000000000000000000000000000000000602082015250565b600061284b602a83611b53565b9150612856826127ef565b604082019050919050565b6000602082019050818103600083015261287a8161283e565b9050919050565b7f416464726573733a20696e73756666696369656e742062616c616e636520666f60008201527f722063616c6c0000000000000000000000000000000000000000000000000000602082015250565b60006128dd602683611b53565b91506128e882612881565b604082019050919050565b6000602082019050818103600083015261290c816128d0565b9050919050565b600081519050919050565b600081905092915050565b600061293482612913565b61293e818561291e565b935061294e818560208601611b64565b80840191505092915050565b60006129668284612929565b915081905092915050565b7f416464726573733a2063616c6c20746f206e6f6e2d636f6e7472616374000000600082015250565b60006129a7601d83611b53565b91506129b282612971565b602082019050919050565b600060208201905081810360008301526129d68161299a565b9050919050565b600060208201905081810360008301526129f78184611b9f565b90509291505056fea2646970667358221220d4ffa3a5d39be0e8c55df524f7c684dc0499d33db03943ddc4865cc81579030964736f6c63430008120033",
  "devdoc": {
    "kind": "dev",
    "methods": {
      "onERC721Received(address,address,uint256,bytes)": {
        "details": "See {IERC721Receiver-onERC721Received}. Always returns `IERC721Receiver.onERC721Received.selector`."
      },
      "owner()": {
        "details": "Returns the address of the current owner."
      },
      "renounceOwnership()": {
        "details": "Leaves the contract without owner. It will not be possible to call `onlyOwner` functions anymore. Can only be called by the current owner. NOTE: Renouncing ownership will leave the contract without an owner, thereby removing any functionality that is only available to the owner."
      },
      "supportsInterface(bytes4)": {
        "details": "See {IERC165-supportsInterface}."
      },
      "transferOwnership(address)": {
        "details": "Transfers ownership of the contract to a new account (`newOwner`). Can only be called by the current owner."
      }
    },
    "version": 1
  },
  "userdoc": {
    "kind": "user",
    "methods": {},
    "version": 1
  },
  "storageLayout": {
    "storage": [
      {
        "astId": 7,
        "contract": "contracts/MultiSwapExtension.sol:MultiSwapExtension",
        "label": "_owner",
        "offset": 0,
        "slot": "0",
        "type": "t_address"
      },
      {
        "astId": 1123,
        "contract": "contracts/MultiSwapExtension.sol:MultiSwapExtension",
        "label": "escrowAddress",
        "offset": 0,
        "slot": "1",
        "type": "t_address"
      },
      {
        "astId": 123,
        "contract": "contracts/MultiSwapExtension.sol:MultiSwapExtension",
        "label": "_status",
        "offset": 0,
        "slot": "2",
        "type": "t_uint256"
      },
      {
        "astId": 1332,
        "contract": "contracts/MultiSwapExtension.sol:MultiSwapExtension",
        "label": "cancelledSwaps",
        "offset": 0,
        "slot": "3",
        "type": "t_mapping(t_uint256,t_bool)"
      },
      {
        "astId": 1337,
        "contract": "contracts/MultiSwapExtension.sol:MultiSwapExtension",
        "label": "swapStructs",
        "offset": 0,
        "slot": "4",
        "type": "t_mapping(t_uint256,t_struct(SwapStruct)1244_storage)"
      }
    ],
    "types": {
      "t_address": {
        "encoding": "inplace",
        "label": "address",
        "numberOfBytes": "20"
      },
      "t_bool": {
        "encoding": "inplace",
        "label": "bool",
        "numberOfBytes": "1"
      },
      "t_enum(ExchangeType)1223": {
        "encoding": "inplace",
        "label": "enum MultiSwapExtension.ExchangeType",
        "numberOfBytes": "1"
      },
      "t_mapping(t_uint256,t_bool)": {
        "encoding": "mapping",
        "key": "t_uint256",
        "label": "mapping(uint256 => bool)",
        "numberOfBytes": "32",
        "value": "t_bool"
      },
      "t_mapping(t_uint256,t_struct(SwapStruct)1244_storage)": {
        "encoding": "mapping",
        "key": "t_uint256",
        "label": "mapping(uint256 => struct MultiSwapExtension.SwapStruct)",
        "numberOfBytes": "32",
        "value": "t_struct(SwapStruct)1244_storage"
      },
      "t_struct(SwapStruct)1244_storage": {
        "encoding": "inplace",
        "label": "struct MultiSwapExtension.SwapStruct",
        "members": [
          {
            "astId": 1225,
            "contract": "contracts/MultiSwapExtension.sol:MultiSwapExtension",
            "label": "initiator",
            "offset": 0,
            "slot": "0",
            "type": "t_address"
          },
          {
            "astId": 1227,
            "contract": "contracts/MultiSwapExtension.sol:MultiSwapExtension",
            "label": "counter",
            "offset": 0,
            "slot": "1",
            "type": "t_address"
          },
          {
            "astId": 1229,
            "contract": "contracts/MultiSwapExtension.sol:MultiSwapExtension",
            "label": "initiatorToken",
            "offset": 0,
            "slot": "2",
            "type": "t_address"
          },
          {
            "astId": 1231,
            "contract": "contracts/MultiSwapExtension.sol:MultiSwapExtension",
            "label": "initiatorAmount",
            "offset": 0,
            "slot": "3",
            "type": "t_uint256"
          },
          {
            "astId": 1233,
            "contract": "contracts/MultiSwapExtension.sol:MultiSwapExtension",
            "label": "counterToken",
            "offset": 0,
            "slot": "4",
            "type": "t_address"
          },
          {
            "astId": 1235,
            "contract": "contracts/MultiSwapExtension.sol:MultiSwapExtension",
            "label": "counterAmount",
            "offset": 0,
            "slot": "5",
            "type": "t_uint256"
          },
          {
            "astId": 1237,
            "contract": "contracts/MultiSwapExtension.sol:MultiSwapExtension",
            "label": "deadline",
            "offset": 0,
            "slot": "6",
            "type": "t_uint256"
          },
          {
            "astId": 1240,
            "contract": "contracts/MultiSwapExtension.sol:MultiSwapExtension",
            "label": "initiatorExchange",
            "offset": 0,
            "slot": "7",
            "type": "t_enum(ExchangeType)1223"
          },
          {
            "astId": 1243,
            "contract": "contracts/MultiSwapExtension.sol:MultiSwapExtension",
            "label": "counterExchange",
            "offset": 1,
            "slot": "7",
            "type": "t_enum(ExchangeType)1223"
          }
        ],
        "numberOfBytes": "256"
      },
      "t_uint256": {
        "encoding": "inplace",
        "label": "uint256",
        "numberOfBytes": "32"
      }
    }
  }
}