{
  "address": "0xaf8d0C1717928779c4B03a2Df0b7D5b3ba426e9e",
  "abi": [
    {
      "inputs": [
        {
          "internalType": "string",
          "name": "name",
          "type": "string"
        },
        {
          "internalType": "string",
          "name": "symbol",
          "type": "string"
        },
        {
          "internalType": "string",
          "name": "baseTokenURI",
          "type": "string"
        }
      ],
      "stateMutability": "nonpayable",
      "type": "constructor"
    },
    {
      "anonymous": false,
      "inputs": [
        {
          "indexed": true,
          "internalType": "address",
          "name": "owner",
          "type": "address"
        },
        {
          "indexed": true,
          "internalType": "address",
          "name": "approved",
          "type": "address"
        },
        {
          "indexed": true,
          "internalType": "uint256",
          "name": "tokenId",
          "type": "uint256"
        }
      ],
      "name": "Approval",
      "type": "event"
    },
    {
      "anonymous": false,
      "inputs": [
        {
          "indexed": true,
          "internalType": "address",
          "name": "owner",
          "type": "address"
        },
        {
          "indexed": true,
          "internalType": "address",
          "name": "operator",
          "type": "address"
        },
        {
          "indexed": false,
          "internalType": "bool",
          "name": "approved",
          "type": "bool"
        }
      ],
      "name": "ApprovalForAll",
      "type": "event"
    },
    {
      "anonymous": false,
      "inputs": [
        {
          "indexed": false,
          "internalType": "address",
          "name": "account",
          "type": "address"
        }
      ],
      "name": "Paused",
      "type": "event"
    },
    {
      "anonymous": false,
      "inputs": [
        {
          "indexed": true,
          "internalType": "bytes32",
          "name": "role",
          "type": "bytes32"
        },
        {
          "indexed": true,
          "internalType": "bytes32",
          "name": "previousAdminRole",
          "type": "bytes32"
        },
        {
          "indexed": true,
          "internalType": "bytes32",
          "name": "newAdminRole",
          "type": "bytes32"
        }
      ],
      "name": "RoleAdminChanged",
      "type": "event"
    },
    {
      "anonymous": false,
      "inputs": [
        {
          "indexed": true,
          "internalType": "bytes32",
          "name": "role",
          "type": "bytes32"
        },
        {
          "indexed": true,
          "internalType": "address",
          "name": "account",
          "type": "address"
        },
        {
          "indexed": true,
          "internalType": "address",
          "name": "sender",
          "type": "address"
        }
      ],
      "name": "RoleGranted",
      "type": "event"
    },
    {
      "anonymous": false,
      "inputs": [
        {
          "indexed": true,
          "internalType": "bytes32",
          "name": "role",
          "type": "bytes32"
        },
        {
          "indexed": true,
          "internalType": "address",
          "name": "account",
          "type": "address"
        },
        {
          "indexed": true,
          "internalType": "address",
          "name": "sender",
          "type": "address"
        }
      ],
      "name": "RoleRevoked",
      "type": "event"
    },
    {
      "anonymous": false,
      "inputs": [
        {
          "indexed": true,
          "internalType": "address",
          "name": "from",
          "type": "address"
        },
        {
          "indexed": true,
          "internalType": "address",
          "name": "to",
          "type": "address"
        },
        {
          "indexed": true,
          "internalType": "uint256",
          "name": "tokenId",
          "type": "uint256"
        }
      ],
      "name": "Transfer",
      "type": "event"
    },
    {
      "anonymous": false,
      "inputs": [
        {
          "indexed": false,
          "internalType": "address",
          "name": "account",
          "type": "address"
        }
      ],
      "name": "Unpaused",
      "type": "event"
    },
    {
      "inputs": [],
      "name": "DEFAULT_ADMIN_ROLE",
      "outputs": [
        {
          "internalType": "bytes32",
          "name": "",
          "type": "bytes32"
        }
      ],
      "stateMutability": "view",
      "type": "function"
    },
    {
      "inputs": [],
      "name": "MINTER_ROLE",
      "outputs": [
        {
          "internalType": "bytes32",
          "name": "",
          "type": "bytes32"
        }
      ],
      "stateMutability": "view",
      "type": "function"
    },
    {
      "inputs": [],
      "name": "PAUSER_ROLE",
      "outputs": [
        {
          "internalType": "bytes32",
          "name": "",
          "type": "bytes32"
        }
      ],
      "stateMutability": "view",
      "type": "function"
    },
    {
      "inputs": [
        {
          "internalType": "address",
          "name": "to",
          "type": "address"
        },
        {
          "internalType": "uint256",
          "name": "tokenId",
          "type": "uint256"
        }
      ],
      "name": "approve",
      "outputs": [],
      "stateMutability": "nonpayable",
      "type": "function"
    },
    {
      "inputs": [
        {
          "internalType": "address",
          "name": "owner",
          "type": "address"
        }
      ],
      "name": "balanceOf",
      "outputs": [
        {
          "internalType": "uint256",
          "name": "",
          "type": "uint256"
        }
      ],
      "stateMutability": "view",
      "type": "function"
    },
    {
      "inputs": [
        {
          "internalType": "uint256",
          "name": "tokenId",
          "type": "uint256"
        }
      ],
      "name": "burn",
      "outputs": [],
      "stateMutability": "nonpayable",
      "type": "function"
    },
    {
      "inputs": [
        {
          "internalType": "uint256",
          "name": "tokenId",
          "type": "uint256"
        }
      ],
      "name": "getApproved",
      "outputs": [
        {
          "internalType": "address",
          "name": "",
          "type": "address"
        }
      ],
      "stateMutability": "view",
      "type": "function"
    },
    {
      "inputs": [
        {
          "internalType": "bytes32",
          "name": "role",
          "type": "bytes32"
        }
      ],
      "name": "getRoleAdmin",
      "outputs": [
        {
          "internalType": "bytes32",
          "name": "",
          "type": "bytes32"
        }
      ],
      "stateMutability": "view",
      "type": "function"
    },
    {
      "inputs": [
        {
          "internalType": "bytes32",
          "name": "role",
          "type": "bytes32"
        },
        {
          "internalType": "uint256",
          "name": "index",
          "type": "uint256"
        }
      ],
      "name": "getRoleMember",
      "outputs": [
        {
          "internalType": "address",
          "name": "",
          "type": "address"
        }
      ],
      "stateMutability": "view",
      "type": "function"
    },
    {
      "inputs": [
        {
          "internalType": "bytes32",
          "name": "role",
          "type": "bytes32"
        }
      ],
      "name": "getRoleMemberCount",
      "outputs": [
        {
          "internalType": "uint256",
          "name": "",
          "type": "uint256"
        }
      ],
      "stateMutability": "view",
      "type": "function"
    },
    {
      "inputs": [
        {
          "internalType": "bytes32",
          "name": "role",
          "type": "bytes32"
        },
        {
          "internalType": "address",
          "name": "account",
          "type": "address"
        }
      ],
      "name": "grantRole",
      "outputs": [],
      "stateMutability": "nonpayable",
      "type": "function"
    },
    {
      "inputs": [
        {
          "internalType": "bytes32",
          "name": "role",
          "type": "bytes32"
        },
        {
          "internalType": "address",
          "name": "account",
          "type": "address"
        }
      ],
      "name": "hasRole",
      "outputs": [
        {
          "internalType": "bool",
          "name": "",
          "type": "bool"
        }
      ],
      "stateMutability": "view",
      "type": "function"
    },
    {
      "inputs": [
        {
          "internalType": "address",
          "name": "owner",
          "type": "address"
        },
        {
          "internalType": "address",
          "name": "operator",
          "type": "address"
        }
      ],
      "name": "isApprovedForAll",
      "outputs": [
        {
          "internalType": "bool",
          "name": "",
          "type": "bool"
        }
      ],
      "stateMutability": "view",
      "type": "function"
    },
    {
      "inputs": [
        {
          "internalType": "address",
          "name": "to",
          "type": "address"
        }
      ],
      "name": "mint",
      "outputs": [],
      "stateMutability": "nonpayable",
      "type": "function"
    },
    {
      "inputs": [],
      "name": "name",
      "outputs": [
        {
          "internalType": "string",
          "name": "",
          "type": "string"
        }
      ],
      "stateMutability": "view",
      "type": "function"
    },
    {
      "inputs": [
        {
          "internalType": "uint256",
          "name": "tokenId",
          "type": "uint256"
        }
      ],
      "name": "ownerOf",
      "outputs": [
        {
          "internalType": "address",
          "name": "",
          "type": "address"
        }
      ],
      "stateMutability": "view",
      "type": "function"
    },
    {
      "inputs": [],
      "name": "pause",
      "outputs": [],
      "stateMutability": "nonpayable",
      "type": "function"
    },
    {
      "inputs": [],
      "name": "paused",
      "outputs": [
        {
          "internalType": "bool",
          "name": "",
          "type": "bool"
        }
      ],
      "stateMutability": "view",
      "type": "function"
    },
    {
      "inputs": [
        {
          "internalType": "bytes32",
          "name": "role",
          "type": "bytes32"
        },
        {
          "internalType": "address",
          "name": "account",
          "type": "address"
        }
      ],
      "name": "renounceRole",
      "outputs": [],
      "stateMutability": "nonpayable",
      "type": "function"
    },
    {
      "inputs": [
        {
          "internalType": "bytes32",
          "name": "role",
          "type": "bytes32"
        },
        {
          "internalType": "address",
          "name": "account",
          "type": "address"
        }
      ],
      "name": "revokeRole",
      "outputs": [],
      "stateMutability": "nonpayable",
      "type": "function"
    },
    {
      "inputs": [
        {
          "internalType": "address",
          "name": "from",
          "type": "address"
        },
        {
          "internalType": "address",
          "name": "to",
          "type": "address"
        },
        {
          "internalType": "uint256",
          "name": "tokenId",
          "type": "uint256"
        }
      ],
      "name": "safeTransferFrom",
      "outputs": [],
      "stateMutability": "nonpayable",
      "type": "function"
    },
    {
      "inputs": [
        {
          "internalType": "address",
          "name": "from",
          "type": "address"
        },
        {
          "internalType": "address",
          "name": "to",
          "type": "address"
        },
        {
          "internalType": "uint256",
          "name": "tokenId",
          "type": "uint256"
        },
        {
          "internalType": "bytes",
          "name": "data",
          "type": "bytes"
        }
      ],
      "name": "safeTransferFrom",
      "outputs": [],
      "stateMutability": "nonpayable",
      "type": "function"
    },
    {
      "inputs": [
        {
          "internalType": "address",
          "name": "operator",
          "type": "address"
        },
        {
          "internalType": "bool",
          "name": "approved",
          "type": "bool"
        }
      ],
      "name": "setApprovalForAll",
      "outputs": [],
      "stateMutability": "nonpayable",
      "type": "function"
    },
    {
      "inputs": [
        {
          "internalType": "bytes4",
          "name": "interfaceId",
          "type": "bytes4"
        }
      ],
      "name": "supportsInterface",
      "outputs": [
        {
          "internalType": "bool",
          "name": "",
          "type": "bool"
        }
      ],
      "stateMutability": "view",
      "type": "function"
    },
    {
      "inputs": [],
      "name": "symbol",
      "outputs": [
        {
          "internalType": "string",
          "name": "",
          "type": "string"
        }
      ],
      "stateMutability": "view",
      "type": "function"
    },
    {
      "inputs": [
        {
          "internalType": "uint256",
          "name": "index",
          "type": "uint256"
        }
      ],
      "name": "tokenByIndex",
      "outputs": [
        {
          "internalType": "uint256",
          "name": "",
          "type": "uint256"
        }
      ],
      "stateMutability": "view",
      "type": "function"
    },
    {
      "inputs": [
        {
          "internalType": "address",
          "name": "owner",
          "type": "address"
        },
        {
          "internalType": "uint256",
          "name": "index",
          "type": "uint256"
        }
      ],
      "name": "tokenOfOwnerByIndex",
      "outputs": [
        {
          "internalType": "uint256",
          "name": "",
          "type": "uint256"
        }
      ],
      "stateMutability": "view",
      "type": "function"
    },
    {
      "inputs": [
        {
          "internalType": "uint256",
          "name": "tokenId",
          "type": "uint256"
        }
      ],
      "name": "tokenURI",
      "outputs": [
        {
          "internalType": "string",
          "name": "",
          "type": "string"
        }
      ],
      "stateMutability": "view",
      "type": "function"
    },
    {
      "inputs": [],
      "name": "totalSupply",
      "outputs": [
        {
          "internalType": "uint256",
          "name": "",
          "type": "uint256"
        }
      ],
      "stateMutability": "view",
      "type": "function"
    },
    {
      "inputs": [
        {
          "internalType": "address",
          "name": "from",
          "type": "address"
        },
        {
          "internalType": "address",
          "name": "to",
          "type": "address"
        },
        {
          "internalType": "uint256",
          "name": "tokenId",
          "type": "uint256"
        }
      ],
      "name": "transferFrom",
      "outputs": [],
      "stateMutability": "nonpayable",
      "type": "function"
    },
    {
      "inputs": [],
      "name": "unpause",
      "outputs": [],
      "stateMutability": "nonpayable",
      "type": "function"
    }
  ],
  "transactionHash": "0x8627879b3d8a3ead52a7633f339a875db65586e6e7958232b95abbffb3cfd0c5",
  "args": [
    "TestNFT",
    "TNFT",
    "https://cyan-hollow-shark-769.mypinata.cloud/ipfs/QmRiWHSYo68DJrwVBUYQEYfHH9vCGs1NWYcLV5uPXFgw7N/"
  ],
  "numDeployments": 1,
  "solcInputHash": "47fec9d87a30aab7a1275edf3cdabddd",
  "bytecode": "0x60806040523480156200001157600080fd5b506040516200503038038062005030833981810160405281019062000037919062000564565b828281600290816200004a919062000868565b5080600390816200005c919062000868565b5050506000600c60006101000a81548160ff02191690831515021790555080600e90816200008b919062000868565b50620000b06000801b620000a46200013b60201b60201c565b6200014360201b60201c565b620000f17f9f2df0fed2c77648de5860a4cc508cd0818c85b8b8a1ab4ceeef8d981c8956a6620000e56200013b60201b60201c565b6200014360201b60201c565b620001327f65d7a28e3265b37a6474929f336521b332c1681b933f6cb9f3376673440d862a620001266200013b60201b60201c565b6200014360201b60201c565b5050506200094f565b600033905090565b6200015582826200015960201b60201c565b5050565b620001708282620001a160201b620010f61760201c565b6200019c81600160008581526020019081526020016000206200029260201b620011d61790919060201c565b505050565b620001b38282620002ca60201b60201c565b6200028e57600160008084815260200190815260200160002060000160008373ffffffffffffffffffffffffffffffffffffffff1673ffffffffffffffffffffffffffffffffffffffff16815260200190815260200160002060006101000a81548160ff021916908315150217905550620002336200013b60201b60201c565b73ffffffffffffffffffffffffffffffffffffffff168173ffffffffffffffffffffffffffffffffffffffff16837f2f8788117e7eff1d82e926ec794901d17c78024a50270940304540a733656f0d60405160405180910390a45b5050565b6000620002c2836000018373ffffffffffffffffffffffffffffffffffffffff1660001b6200033460201b60201c565b905092915050565b600080600084815260200190815260200160002060000160008373ffffffffffffffffffffffffffffffffffffffff1673ffffffffffffffffffffffffffffffffffffffff16815260200190815260200160002060009054906101000a900460ff16905092915050565b6000620003488383620003ae60201b60201c565b620003a3578260000182908060018154018082558091505060019003906000526020600020016000909190919091505582600001805490508360010160008481526020019081526020016000208190555060019050620003a8565b600090505b92915050565b600080836001016000848152602001908152602001600020541415905092915050565b6000604051905090565b600080fd5b600080fd5b600080fd5b600080fd5b6000601f19601f8301169050919050565b7f4e487b7100000000000000000000000000000000000000000000000000000000600052604160045260246000fd5b6200043a82620003ef565b810181811067ffffffffffffffff821117156200045c576200045b62000400565b5b80604052505050565b600062000471620003d1565b90506200047f82826200042f565b919050565b600067ffffffffffffffff821115620004a257620004a162000400565b5b620004ad82620003ef565b9050602081019050919050565b60005b83811015620004da578082015181840152602081019050620004bd565b60008484015250505050565b6000620004fd620004f78462000484565b62000465565b9050828152602081018484840111156200051c576200051b620003ea565b5b62000529848285620004ba565b509392505050565b600082601f830112620005495762000548620003e5565b5b81516200055b848260208601620004e6565b91505092915050565b60008060006060848603121562000580576200057f620003db565b5b600084015167ffffffffffffffff811115620005a157620005a0620003e0565b5b620005af8682870162000531565b935050602084015167ffffffffffffffff811115620005d357620005d2620003e0565b5b620005e18682870162000531565b925050604084015167ffffffffffffffff811115620006055762000604620003e0565b5b620006138682870162000531565b9150509250925092565b600081519050919050565b7f4e487b7100000000000000000000000000000000000000000000000000000000600052602260045260246000fd5b600060028204905060018216806200067057607f821691505b60208210810362000686576200068562000628565b5b50919050565b60008190508160005260206000209050919050565b60006020601f8301049050919050565b600082821b905092915050565b600060088302620006f07fffffffffffffffffffffffffffffffffffffffffffffffffffffffffffffffff82620006b1565b620006fc8683620006b1565b95508019841693508086168417925050509392505050565b6000819050919050565b6000819050919050565b600062000749620007436200073d8462000714565b6200071e565b62000714565b9050919050565b6000819050919050565b620007658362000728565b6200077d620007748262000750565b848454620006be565b825550505050565b600090565b6200079462000785565b620007a18184846200075a565b505050565b5b81811015620007c957620007bd6000826200078a565b600181019050620007a7565b5050565b601f8211156200081857620007e2816200068c565b620007ed84620006a1565b81016020851015620007fd578190505b620008156200080c85620006a1565b830182620007a6565b50505b505050565b600082821c905092915050565b60006200083d600019846008026200081d565b1980831691505092915050565b60006200085883836200082a565b9150826002028217905092915050565b62000873826200061d565b67ffffffffffffffff8111156200088f576200088e62000400565b5b6200089b825462000657565b620008a8828285620007cd565b600060209050601f831160018114620008e05760008415620008cb578287015190505b620008d785826200084a565b86555062000947565b601f198416620008f0866200068c565b60005b828110156200091a57848901518255600182019150602085019450602081019050620008f3565b868310156200093a578489015162000936601f8916826200082a565b8355505b6001600288020188555050505b505050505050565b6146d1806200095f6000396000f3fe608060405234801561001057600080fd5b50600436106101e55760003560e01c80636352211e1161010f578063a22cb465116100a2578063d539139311610071578063d5391393146105a0578063d547741f146105be578063e63ab1e9146105da578063e985e9c5146105f8576101e5565b8063a22cb46514610508578063b88d4fde14610524578063c87b56dd14610540578063ca15c87314610570576101e5565b80639010d07c116100de5780639010d07c1461046c57806391d148541461049c57806395d89b41146104cc578063a217fddf146104ea576101e5565b80636352211e146103e65780636a6278421461041657806370a08231146104325780638456cb5914610462576101e5565b80632f2ff15d1161018757806342842e0e1161015657806342842e0e1461036057806342966c681461037c5780634f6ccce7146103985780635c975abb146103c8576101e5565b80632f2ff15d146102ee5780632f745c591461030a57806336568abe1461033a5780633f4ba83a14610356576101e5565b8063095ea7b3116101c3578063095ea7b31461026857806318160ddd1461028457806323b872dd146102a2578063248a9ca3146102be576101e5565b806301ffc9a7146101ea57806306fdde031461021a578063081812fc14610238575b600080fd5b61020460048036038101906101ff91906130ba565b610628565b6040516102119190613102565b60405180910390f35b61022261063a565b60405161022f91906131ad565b60405180910390f35b610252600480360381019061024d9190613205565b6106cc565b60405161025f9190613273565b60405180910390f35b610282600480360381019061027d91906132ba565b610712565b005b61028c610829565b6040516102999190613309565b60405180910390f35b6102bc60048036038101906102b79190613324565b610836565b005b6102d860048036038101906102d391906133ad565b610896565b6040516102e591906133e9565b60405180910390f35b61030860048036038101906103039190613404565b6108b5565b005b610324600480360381019061031f91906132ba565b6108d6565b6040516103319190613309565b60405180910390f35b610354600480360381019061034f9190613404565b61097b565b005b61035e6109fe565b005b61037a60048036038101906103759190613324565b610a78565b005b61039660048036038101906103919190613205565b610a98565b005b6103b260048036038101906103ad9190613205565b610af4565b6040516103bf9190613309565b60405180910390f35b6103d0610b65565b6040516103dd9190613102565b60405180910390f35b61040060048036038101906103fb9190613205565b610b7c565b60405161040d9190613273565b60405180910390f35b610430600480360381019061042b9190613444565b610c02565b005b61044c60048036038101906104479190613444565b610c92565b6040516104599190613309565b60405180910390f35b61046a610d49565b005b61048660048036038101906104819190613471565b610dc3565b6040516104939190613273565b60405180910390f35b6104b660048036038101906104b19190613404565b610df2565b6040516104c39190613102565b60405180910390f35b6104d4610e5c565b6040516104e191906131ad565b60405180910390f35b6104f2610eee565b6040516104ff91906133e9565b60405180910390f35b610522600480360381019061051d91906134dd565b610ef5565b005b61053e60048036038101906105399190613652565b610f0b565b005b61055a60048036038101906105559190613205565b610f6d565b60405161056791906131ad565b60405180910390f35b61058a600480360381019061058591906133ad565b610fd5565b6040516105979190613309565b60405180910390f35b6105a8610ff9565b6040516105b591906133e9565b60405180910390f35b6105d860048036038101906105d39190613404565b61101d565b005b6105e261103e565b6040516105ef91906133e9565b60405180910390f35b610612600480360381019061060d91906136d5565b611062565b60405161061f9190613102565b60405180910390f35b600061063382611206565b9050919050565b60606002805461064990613744565b80601f016020809104026020016040519081016040528092919081815260200182805461067590613744565b80156106c25780601f10610697576101008083540402835291602001916106c2565b820191906000526020600020905b8154815290600101906020018083116106a557829003601f168201915b5050505050905090565b60006106d782611280565b6006600083815260200190815260200160002060009054906101000a900473ffffffffffffffffffffffffffffffffffffffff169050919050565b600061071d82610b7c565b90508073ffffffffffffffffffffffffffffffffffffffff168373ffffffffffffffffffffffffffffffffffffffff160361078d576040517f08c379a0000000000000000000000000000000000000000000000000000000008152600401610784906137e7565b60405180910390fd5b8073ffffffffffffffffffffffffffffffffffffffff166107ac6112cb565b73ffffffffffffffffffffffffffffffffffffffff1614806107db57506107da816107d56112cb565b611062565b5b61081a576040517f08c379a000000000000000000000000000000000000000000000000000000000815260040161081190613879565b60405180910390fd5b61082483836112d3565b505050565b6000600a80549050905090565b6108476108416112cb565b8261138c565b610886576040517f08c379a000000000000000000000000000000000000000000000000000000000815260040161087d9061390b565b60405180910390fd5b610891838383611421565b505050565b6000806000838152602001908152602001600020600101549050919050565b6108be82610896565b6108c78161171a565b6108d1838361172e565b505050565b60006108e183610c92565b8210610922576040517f08c379a00000000000000000000000000000000000000000000000000000000081526004016109199061399d565b60405180910390fd5b600860008473ffffffffffffffffffffffffffffffffffffffff1673ffffffffffffffffffffffffffffffffffffffff168152602001908152602001600020600083815260200190815260200160002054905092915050565b6109836112cb565b73ffffffffffffffffffffffffffffffffffffffff168173ffffffffffffffffffffffffffffffffffffffff16146109f0576040517f08c379a00000000000000000000000000000000000000000000000000000000081526004016109e790613a2f565b60405180910390fd5b6109fa8282611762565b5050565b610a2f7f65d7a28e3265b37a6474929f336521b332c1681b933f6cb9f3376673440d862a610a2a6112cb565b610df2565b610a6e576040517f08c379a0000000000000000000000000000000000000000000000000000000008152600401610a6590613ac1565b60405180910390fd5b610a76611796565b565b610a9383838360405180602001604052806000815250610f0b565b505050565b610aa9610aa36112cb565b8261138c565b610ae8576040517f08c379a0000000000000000000000000000000000000000000000000000000008152600401610adf9061390b565b60405180910390fd5b610af1816117f9565b50565b6000610afe610829565b8210610b3f576040517f08c379a0000000000000000000000000000000000000000000000000000000008152600401610b3690613b53565b60405180910390fd5b600a8281548110610b5357610b52613b73565b5b90600052602060002001549050919050565b6000600c60009054906101000a900460ff16905090565b600080610b8883611947565b9050600073ffffffffffffffffffffffffffffffffffffffff168173ffffffffffffffffffffffffffffffffffffffff1603610bf9576040517f08c379a0000000000000000000000000000000000000000000000000000000008152600401610bf090613bee565b60405180910390fd5b80915050919050565b610c337f9f2df0fed2c77648de5860a4cc508cd0818c85b8b8a1ab4ceeef8d981c8956a6610c2e6112cb565b610df2565b610c72576040517f08c379a0000000000000000000000000000000000000000000000000000000008152600401610c6990613c80565b60405180910390fd5b610c8581610c80600d611984565b611992565b610c8f600d611baf565b50565b60008073ffffffffffffffffffffffffffffffffffffffff168273ffffffffffffffffffffffffffffffffffffffff1603610d02576040517f08c379a0000000000000000000000000000000000000000000000000000000008152600401610cf990613d12565b60405180910390fd5b600560008373ffffffffffffffffffffffffffffffffffffffff1673ffffffffffffffffffffffffffffffffffffffff168152602001908152602001600020549050919050565b610d7a7f65d7a28e3265b37a6474929f336521b332c1681b933f6cb9f3376673440d862a610d756112cb565b610df2565b610db9576040517f08c379a0000000000000000000000000000000000000000000000000000000008152600401610db090613da4565b60405180910390fd5b610dc1611bc5565b565b6000610dea8260016000868152602001908152602001600020611c2890919063ffffffff16565b905092915050565b600080600084815260200190815260200160002060000160008373ffffffffffffffffffffffffffffffffffffffff1673ffffffffffffffffffffffffffffffffffffffff16815260200190815260200160002060009054906101000a900460ff16905092915050565b606060038054610e6b90613744565b80601f0160208091040260200160405190810160405280929190818152602001828054610e9790613744565b8015610ee45780601f10610eb957610100808354040283529160200191610ee4565b820191906000526020600020905b815481529060010190602001808311610ec757829003601f168201915b5050505050905090565b6000801b81565b610f07610f006112cb565b8383611c42565b5050565b610f1c610f166112cb565b8361138c565b610f5b576040517f08c379a0000000000000000000000000000000000000000000000000000000008152600401610f529061390b565b60405180910390fd5b610f6784848484611dae565b50505050565b6060610f7882611280565b6000610f82611e0a565b90506000815111610fa25760405180602001604052806000815250610fcd565b80610fac84611e9c565b604051602001610fbd929190613e00565b6040516020818303038152906040525b915050919050565b6000610ff260016000848152602001908152602001600020611f6a565b9050919050565b7f9f2df0fed2c77648de5860a4cc508cd0818c85b8b8a1ab4ceeef8d981c8956a681565b61102682610896565b61102f8161171a565b6110398383611762565b505050565b7f65d7a28e3265b37a6474929f336521b332c1681b933f6cb9f3376673440d862a81565b6000600760008473ffffffffffffffffffffffffffffffffffffffff1673ffffffffffffffffffffffffffffffffffffffff16815260200190815260200160002060008373ffffffffffffffffffffffffffffffffffffffff1673ffffffffffffffffffffffffffffffffffffffff16815260200190815260200160002060009054906101000a900460ff16905092915050565b6111008282610df2565b6111d257600160008084815260200190815260200160002060000160008373ffffffffffffffffffffffffffffffffffffffff1673ffffffffffffffffffffffffffffffffffffffff16815260200190815260200160002060006101000a81548160ff0219169083151502179055506111776112cb565b73ffffffffffffffffffffffffffffffffffffffff168173ffffffffffffffffffffffffffffffffffffffff16837f2f8788117e7eff1d82e926ec794901d17c78024a50270940304540a733656f0d60405160405180910390a45b5050565b60006111fe836000018373ffffffffffffffffffffffffffffffffffffffff1660001b611f7f565b905092915050565b60007f780e9d63000000000000000000000000000000000000000000000000000000007bffffffffffffffffffffffffffffffffffffffffffffffffffffffff1916827bffffffffffffffffffffffffffffffffffffffffffffffffffffffff19161480611279575061127882611fef565b5b9050919050565b611289816120d1565b6112c8576040517f08c379a00000000000000000000000000000000000000000000000000000000081526004016112bf90613bee565b60405180910390fd5b50565b600033905090565b816006600083815260200190815260200160002060006101000a81548173ffffffffffffffffffffffffffffffffffffffff021916908373ffffffffffffffffffffffffffffffffffffffff160217905550808273ffffffffffffffffffffffffffffffffffffffff1661134683610b7c565b73ffffffffffffffffffffffffffffffffffffffff167f8c5be1e5ebec7d5bd14f71427d1e84f3dd0314c0f7b2291e5b200ac8c7c3b92560405160405180910390a45050565b60008061139883610b7c565b90508073ffffffffffffffffffffffffffffffffffffffff168473ffffffffffffffffffffffffffffffffffffffff1614806113da57506113d98185611062565b5b8061141857508373ffffffffffffffffffffffffffffffffffffffff16611400846106cc565b73ffffffffffffffffffffffffffffffffffffffff16145b91505092915050565b8273ffffffffffffffffffffffffffffffffffffffff1661144182610b7c565b73ffffffffffffffffffffffffffffffffffffffff1614611497576040517f08c379a000000000000000000000000000000000000000000000000000000000815260040161148e90613e96565b60405180910390fd5b600073ffffffffffffffffffffffffffffffffffffffff168273ffffffffffffffffffffffffffffffffffffffff1603611506576040517f08c379a00000000000000000000000000000000000000000000000000000000081526004016114fd90613f28565b60405180910390fd5b6115138383836001612112565b8273ffffffffffffffffffffffffffffffffffffffff1661153382610b7c565b73ffffffffffffffffffffffffffffffffffffffff1614611589576040517f08c379a000000000000000000000000000000000000000000000000000000000815260040161158090613e96565b60405180910390fd5b6006600082815260200190815260200160002060006101000a81549073ffffffffffffffffffffffffffffffffffffffff02191690556001600560008573ffffffffffffffffffffffffffffffffffffffff1673ffffffffffffffffffffffffffffffffffffffff168152602001908152602001600020600082825403925050819055506001600560008473ffffffffffffffffffffffffffffffffffffffff1673ffffffffffffffffffffffffffffffffffffffff16815260200190815260200160002060008282540192505081905550816004600083815260200190815260200160002060006101000a81548173ffffffffffffffffffffffffffffffffffffffff021916908373ffffffffffffffffffffffffffffffffffffffff160217905550808273ffffffffffffffffffffffffffffffffffffffff168473ffffffffffffffffffffffffffffffffffffffff167fddf252ad1be2c89b69c2b068fc378daa952ba7f163c4a11628f55a4df523b3ef60405160405180910390a46117158383836001612124565b505050565b61172b816117266112cb565b61212a565b50565b61173882826110f6565b61175d81600160008581526020019081526020016000206111d690919063ffffffff16565b505050565b61176c82826121af565b611791816001600085815260200190815260200160002061229090919063ffffffff16565b505050565b61179e6122c0565b6000600c60006101000a81548160ff0219169083151502179055507f5db9ee0a495bf2e6ff9c91a7834c1ba4fdd244a5e8aa4e537bd38aeae4b073aa6117e26112cb565b6040516117ef9190613273565b60405180910390a1565b600061180482610b7c565b9050611814816000846001612112565b61181d82610b7c565b90506006600083815260200190815260200160002060006101000a81549073ffffffffffffffffffffffffffffffffffffffff02191690556001600560008373ffffffffffffffffffffffffffffffffffffffff1673ffffffffffffffffffffffffffffffffffffffff168152602001908152602001600020600082825403925050819055506004600083815260200190815260200160002060006101000a81549073ffffffffffffffffffffffffffffffffffffffff021916905581600073ffffffffffffffffffffffffffffffffffffffff168273ffffffffffffffffffffffffffffffffffffffff167fddf252ad1be2c89b69c2b068fc378daa952ba7f163c4a11628f55a4df523b3ef60405160405180910390a4611943816000846001612124565b5050565b60006004600083815260200190815260200160002060009054906101000a900473ffffffffffffffffffffffffffffffffffffffff169050919050565b600081600001549050919050565b600073ffffffffffffffffffffffffffffffffffffffff168273ffffffffffffffffffffffffffffffffffffffff1603611a01576040517f08c379a00000000000000000000000000000000000000000000000000000000081526004016119f890613f94565b60405180910390fd5b611a0a816120d1565b15611a4a576040517f08c379a0000000000000000000000000000000000000000000000000000000008152600401611a4190614000565b60405180910390fd5b611a58600083836001612112565b611a61816120d1565b15611aa1576040517f08c379a0000000000000000000000000000000000000000000000000000000008152600401611a9890614000565b60405180910390fd5b6001600560008473ffffffffffffffffffffffffffffffffffffffff1673ffffffffffffffffffffffffffffffffffffffff16815260200190815260200160002060008282540192505081905550816004600083815260200190815260200160002060006101000a81548173ffffffffffffffffffffffffffffffffffffffff021916908373ffffffffffffffffffffffffffffffffffffffff160217905550808273ffffffffffffffffffffffffffffffffffffffff16600073ffffffffffffffffffffffffffffffffffffffff167fddf252ad1be2c89b69c2b068fc378daa952ba7f163c4a11628f55a4df523b3ef60405160405180910390a4611bab600083836001612124565b5050565b6001816000016000828254019250508190555050565b611bcd612309565b6001600c60006101000a81548160ff0219169083151502179055507f62e78cea01bee320cd4e420270b5ea74000d11b0c9f74754ebdbfc544b05a258611c116112cb565b604051611c1e9190613273565b60405180910390a1565b6000611c378360000183612353565b60001c905092915050565b8173ffffffffffffffffffffffffffffffffffffffff168373ffffffffffffffffffffffffffffffffffffffff1603611cb0576040517f08c379a0000000000000000000000000000000000000000000000000000000008152600401611ca79061406c565b60405180910390fd5b80600760008573ffffffffffffffffffffffffffffffffffffffff1673ffffffffffffffffffffffffffffffffffffffff16815260200190815260200160002060008473ffffffffffffffffffffffffffffffffffffffff1673ffffffffffffffffffffffffffffffffffffffff16815260200190815260200160002060006101000a81548160ff0219169083151502179055508173ffffffffffffffffffffffffffffffffffffffff168373ffffffffffffffffffffffffffffffffffffffff167f17307eab39ab6107e8899845ad3d59bd9653f200f220920489ca2b5937696c3183604051611da19190613102565b60405180910390a3505050565b611db9848484611421565b611dc58484848461237e565b611e04576040517f08c379a0000000000000000000000000000000000000000000000000000000008152600401611dfb906140fe565b60405180910390fd5b50505050565b6060600e8054611e1990613744565b80601f0160208091040260200160405190810160405280929190818152602001828054611e4590613744565b8015611e925780601f10611e6757610100808354040283529160200191611e92565b820191906000526020600020905b815481529060010190602001808311611e7557829003601f168201915b5050505050905090565b606060006001611eab84612505565b01905060008167ffffffffffffffff811115611eca57611ec9613527565b5b6040519080825280601f01601f191660200182016040528015611efc5781602001600182028036833780820191505090505b509050600082602001820190505b600115611f5f578080600190039150507f3031323334353637383961626364656600000000000000000000000000000000600a86061a8153600a8581611f5357611f5261411e565b5b04945060008503611f0a575b819350505050919050565b6000611f7882600001612658565b9050919050565b6000611f8b8383612669565b611fe4578260000182908060018154018082558091505060019003906000526020600020016000909190919091505582600001805490508360010160008481526020019081526020016000208190555060019050611fe9565b600090505b92915050565b60007f80ac58cd000000000000000000000000000000000000000000000000000000007bffffffffffffffffffffffffffffffffffffffffffffffffffffffff1916827bffffffffffffffffffffffffffffffffffffffffffffffffffffffff191614806120ba57507f5b5e139f000000000000000000000000000000000000000000000000000000007bffffffffffffffffffffffffffffffffffffffffffffffffffffffff1916827bffffffffffffffffffffffffffffffffffffffffffffffffffffffff1916145b806120ca57506120c98261268c565b5b9050919050565b60008073ffffffffffffffffffffffffffffffffffffffff166120f383611947565b73ffffffffffffffffffffffffffffffffffffffff1614159050919050565b61211e84848484612706565b50505050565b50505050565b6121348282610df2565b6121ab5761214181612760565b61214f8360001c602061278d565b6040516020016121609291906141e5565b6040516020818303038152906040526040517f08c379a00000000000000000000000000000000000000000000000000000000081526004016121a291906131ad565b60405180910390fd5b5050565b6121b98282610df2565b1561228c57600080600084815260200190815260200160002060000160008373ffffffffffffffffffffffffffffffffffffffff1673ffffffffffffffffffffffffffffffffffffffff16815260200190815260200160002060006101000a81548160ff0219169083151502179055506122316112cb565b73ffffffffffffffffffffffffffffffffffffffff168173ffffffffffffffffffffffffffffffffffffffff16837ff6391f5c32d9c69d2a47ea670b442974b53935d1edc7fd64eb21e047a839171b60405160405180910390a45b5050565b60006122b8836000018373ffffffffffffffffffffffffffffffffffffffff1660001b6129c9565b905092915050565b6122c8610b65565b612307576040517f08c379a00000000000000000000000000000000000000000000000000000000081526004016122fe9061426b565b60405180910390fd5b565b612311610b65565b15612351576040517f08c379a0000000000000000000000000000000000000000000000000000000008152600401612348906142d7565b60405180910390fd5b565b600082600001828154811061236b5761236a613b73565b5b9060005260206000200154905092915050565b600061239f8473ffffffffffffffffffffffffffffffffffffffff16612add565b156124f8578373ffffffffffffffffffffffffffffffffffffffff1663150b7a026123c86112cb565b8786866040518563ffffffff1660e01b81526004016123ea949392919061434c565b6020604051808303816000875af192505050801561242657506040513d601f19601f8201168201806040525081019061242391906143ad565b60015b6124a8573d8060008114612456576040519150601f19603f3d011682016040523d82523d6000602084013e61245b565b606091505b5060008151036124a0576040517f08c379a0000000000000000000000000000000000000000000000000000000008152600401612497906140fe565b60405180910390fd5b805181602001fd5b63150b7a0260e01b7bffffffffffffffffffffffffffffffffffffffffffffffffffffffff1916817bffffffffffffffffffffffffffffffffffffffffffffffffffffffff1916149150506124fd565b600190505b949350505050565b600080600090507a184f03e93ff9f4daa797ed6e38ed64bf6a1f0100000000000000008310612563577a184f03e93ff9f4daa797ed6e38ed64bf6a1f01000000000000000083816125595761255861411e565b5b0492506040810190505b6d04ee2d6d415b85acef810000000083106125a0576d04ee2d6d415b85acef810000000083816125965761259561411e565b5b0492506020810190505b662386f26fc1000083106125cf57662386f26fc1000083816125c5576125c461411e565b5b0492506010810190505b6305f5e10083106125f8576305f5e10083816125ee576125ed61411e565b5b0492506008810190505b612710831061261d5761271083816126135761261261411e565b5b0492506004810190505b6064831061264057606483816126365761263561411e565b5b0492506002810190505b600a831061264f576001810190505b80915050919050565b600081600001805490509050919050565b600080836001016000848152602001908152602001600020541415905092915050565b60007f5a05180f000000000000000000000000000000000000000000000000000000007bffffffffffffffffffffffffffffffffffffffffffffffffffffffff1916827bffffffffffffffffffffffffffffffffffffffffffffffffffffffff191614806126ff57506126fe82612b00565b5b9050919050565b61271284848484612b7a565b61271a610b65565b1561275a576040517f08c379a00000000000000000000000000000000000000000000000000000000081526004016127519061444c565b60405180910390fd5b50505050565b60606127868273ffffffffffffffffffffffffffffffffffffffff16601460ff1661278d565b9050919050565b6060600060028360026127a0919061449b565b6127aa91906144dd565b67ffffffffffffffff8111156127c3576127c2613527565b5b6040519080825280601f01601f1916602001820160405280156127f55781602001600182028036833780820191505090505b5090507f30000000000000000000000000000000000000000000000000000000000000008160008151811061282d5761282c613b73565b5b60200101907effffffffffffffffffffffffffffffffffffffffffffffffffffffffffffff1916908160001a9053507f78000000000000000000000000000000000000000000000000000000000000008160018151811061289157612890613b73565b5b60200101907effffffffffffffffffffffffffffffffffffffffffffffffffffffffffffff1916908160001a905350600060018460026128d1919061449b565b6128db91906144dd565b90505b600181111561297b577f3031323334353637383961626364656600000000000000000000000000000000600f86166010811061291d5761291c613b73565b5b1a60f81b82828151811061293457612933613b73565b5b60200101907effffffffffffffffffffffffffffffffffffffffffffffffffffffffffffff1916908160001a905350600485901c94508061297490614511565b90506128de565b50600084146129bf576040517f08c379a00000000000000000000000000000000000000000000000000000000081526004016129b690614586565b60405180910390fd5b8091505092915050565b60008083600101600084815260200190815260200160002054905060008114612ad15760006001826129fb91906145a6565b9050600060018660000180549050612a1391906145a6565b9050818114612a82576000866000018281548110612a3457612a33613b73565b5b9060005260206000200154905080876000018481548110612a5857612a57613b73565b5b90600052602060002001819055508387600101600083815260200190815260200160002081905550505b85600001805480612a9657612a956145da565b5b600190038181906000526020600020016000905590558560010160008681526020019081526020016000206000905560019350505050612ad7565b60009150505b92915050565b6000808273ffffffffffffffffffffffffffffffffffffffff163b119050919050565b60007f7965db0b000000000000000000000000000000000000000000000000000000007bffffffffffffffffffffffffffffffffffffffffffffffffffffffff1916827bffffffffffffffffffffffffffffffffffffffffffffffffffffffff19161480612b735750612b7282612cd8565b5b9050919050565b612b8684848484612d42565b6001811115612bca576040517f08c379a0000000000000000000000000000000000000000000000000000000008152600401612bc19061467b565b60405180910390fd5b6000829050600073ffffffffffffffffffffffffffffffffffffffff168573ffffffffffffffffffffffffffffffffffffffff1603612c1157612c0c81612d48565b612c50565b8373ffffffffffffffffffffffffffffffffffffffff168573ffffffffffffffffffffffffffffffffffffffff1614612c4f57612c4e8582612d91565b5b5b600073ffffffffffffffffffffffffffffffffffffffff168473ffffffffffffffffffffffffffffffffffffffff1603612c9257612c8d81612efe565b612cd1565b8473ffffffffffffffffffffffffffffffffffffffff168473ffffffffffffffffffffffffffffffffffffffff1614612cd057612ccf8482612fcf565b5b5b5050505050565b60007f01ffc9a7000000000000000000000000000000000000000000000000000000007bffffffffffffffffffffffffffffffffffffffffffffffffffffffff1916827bffffffffffffffffffffffffffffffffffffffffffffffffffffffff1916149050919050565b50505050565b600a80549050600b600083815260200190815260200160002081905550600a81908060018154018082558091505060019003906000526020600020016000909190919091505550565b60006001612d9e84610c92565b612da891906145a6565b9050600060096000848152602001908152602001600020549050818114612e8d576000600860008673ffffffffffffffffffffffffffffffffffffffff1673ffffffffffffffffffffffffffffffffffffffff168152602001908152602001600020600084815260200190815260200160002054905080600860008773ffffffffffffffffffffffffffffffffffffffff1673ffffffffffffffffffffffffffffffffffffffff168152602001908152602001600020600084815260200190815260200160002081905550816009600083815260200190815260200160002081905550505b6009600084815260200190815260200160002060009055600860008573ffffffffffffffffffffffffffffffffffffffff1673ffffffffffffffffffffffffffffffffffffffff16815260200190815260200160002060008381526020019081526020016000206000905550505050565b60006001600a80549050612f1291906145a6565b90506000600b60008481526020019081526020016000205490506000600a8381548110612f4257612f41613b73565b5b9060005260206000200154905080600a8381548110612f6457612f63613b73565b5b906000526020600020018190555081600b600083815260200190815260200160002081905550600b600085815260200190815260200160002060009055600a805480612fb357612fb26145da565b5b6001900381819060005260206000200160009055905550505050565b6000612fda83610c92565b905081600860008573ffffffffffffffffffffffffffffffffffffffff1673ffffffffffffffffffffffffffffffffffffffff168152602001908152602001600020600083815260200190815260200160002081905550806009600084815260200190815260200160002081905550505050565b6000604051905090565b600080fd5b600080fd5b60007fffffffff0000000000000000000000000000000000000000000000000000000082169050919050565b61309781613062565b81146130a257600080fd5b50565b6000813590506130b48161308e565b92915050565b6000602082840312156130d0576130cf613058565b5b60006130de848285016130a5565b91505092915050565b60008115159050919050565b6130fc816130e7565b82525050565b600060208201905061311760008301846130f3565b92915050565b600081519050919050565b600082825260208201905092915050565b60005b8381101561315757808201518184015260208101905061313c565b60008484015250505050565b6000601f19601f8301169050919050565b600061317f8261311d565b6131898185613128565b9350613199818560208601613139565b6131a281613163565b840191505092915050565b600060208201905081810360008301526131c78184613174565b905092915050565b6000819050919050565b6131e2816131cf565b81146131ed57600080fd5b50565b6000813590506131ff816131d9565b92915050565b60006020828403121561321b5761321a613058565b5b6000613229848285016131f0565b91505092915050565b600073ffffffffffffffffffffffffffffffffffffffff82169050919050565b600061325d82613232565b9050919050565b61326d81613252565b82525050565b60006020820190506132886000830184613264565b92915050565b61329781613252565b81146132a257600080fd5b50565b6000813590506132b48161328e565b92915050565b600080604083850312156132d1576132d0613058565b5b60006132df858286016132a5565b92505060206132f0858286016131f0565b9150509250929050565b613303816131cf565b82525050565b600060208201905061331e60008301846132fa565b92915050565b60008060006060848603121561333d5761333c613058565b5b600061334b868287016132a5565b935050602061335c868287016132a5565b925050604061336d868287016131f0565b9150509250925092565b6000819050919050565b61338a81613377565b811461339557600080fd5b50565b6000813590506133a781613381565b92915050565b6000602082840312156133c3576133c2613058565b5b60006133d184828501613398565b91505092915050565b6133e381613377565b82525050565b60006020820190506133fe60008301846133da565b92915050565b6000806040838503121561341b5761341a613058565b5b600061342985828601613398565b925050602061343a858286016132a5565b9150509250929050565b60006020828403121561345a57613459613058565b5b6000613468848285016132a5565b91505092915050565b6000806040838503121561348857613487613058565b5b600061349685828601613398565b92505060206134a7858286016131f0565b9150509250929050565b6134ba816130e7565b81146134c557600080fd5b50565b6000813590506134d7816134b1565b92915050565b600080604083850312156134f4576134f3613058565b5b6000613502858286016132a5565b9250506020613513858286016134c8565b9150509250929050565b600080fd5b600080fd5b7f4e487b7100000000000000000000000000000000000000000000000000000000600052604160045260246000fd5b61355f82613163565b810181811067ffffffffffffffff8211171561357e5761357d613527565b5b80604052505050565b600061359161304e565b905061359d8282613556565b919050565b600067ffffffffffffffff8211156135bd576135bc613527565b5b6135c682613163565b9050602081019050919050565b82818337600083830152505050565b60006135f56135f0846135a2565b613587565b90508281526020810184848401111561361157613610613522565b5b61361c8482856135d3565b509392505050565b600082601f8301126136395761363861351d565b5b81356136498482602086016135e2565b91505092915050565b6000806000806080858703121561366c5761366b613058565b5b600061367a878288016132a5565b945050602061368b878288016132a5565b935050604061369c878288016131f0565b925050606085013567ffffffffffffffff8111156136bd576136bc61305d565b5b6136c987828801613624565b91505092959194509250565b600080604083850312156136ec576136eb613058565b5b60006136fa858286016132a5565b925050602061370b858286016132a5565b9150509250929050565b7f4e487b7100000000000000000000000000000000000000000000000000000000600052602260045260246000fd5b6000600282049050600182168061375c57607f821691505b60208210810361376f5761376e613715565b5b50919050565b7f4552433732313a20617070726f76616c20746f2063757272656e74206f776e6560008201527f7200000000000000000000000000000000000000000000000000000000000000602082015250565b60006137d1602183613128565b91506137dc82613775565b604082019050919050565b60006020820190508181036000830152613800816137c4565b9050919050565b7f4552433732313a20617070726f76652063616c6c6572206973206e6f7420746f60008201527f6b656e206f776e6572206f7220617070726f76656420666f7220616c6c000000602082015250565b6000613863603d83613128565b915061386e82613807565b604082019050919050565b6000602082019050818103600083015261389281613856565b9050919050565b7f4552433732313a2063616c6c6572206973206e6f7420746f6b656e206f776e6560008201527f72206f7220617070726f76656400000000000000000000000000000000000000602082015250565b60006138f5602d83613128565b915061390082613899565b604082019050919050565b60006020820190508181036000830152613924816138e8565b9050919050565b7f455243373231456e756d657261626c653a206f776e657220696e646578206f7560008201527f74206f6620626f756e6473000000000000000000000000000000000000000000602082015250565b6000613987602b83613128565b91506139928261392b565b604082019050919050565b600060208201905081810360008301526139b68161397a565b9050919050565b7f416363657373436f6e74726f6c3a2063616e206f6e6c792072656e6f756e636560008201527f20726f6c657320666f722073656c660000000000000000000000000000000000602082015250565b6000613a19602f83613128565b9150613a24826139bd565b604082019050919050565b60006020820190508181036000830152613a4881613a0c565b9050919050565b7f4552433732315072657365744d696e7465725061757365724175746f49643a2060008201527f6d75737420686176652070617573657220726f6c6520746f20756e7061757365602082015250565b6000613aab604083613128565b9150613ab682613a4f565b604082019050919050565b60006020820190508181036000830152613ada81613a9e565b9050919050565b7f455243373231456e756d657261626c653a20676c6f62616c20696e646578206f60008201527f7574206f6620626f756e64730000000000000000000000000000000000000000602082015250565b6000613b3d602c83613128565b9150613b4882613ae1565b604082019050919050565b60006020820190508181036000830152613b6c81613b30565b9050919050565b7f4e487b7100000000000000000000000000000000000000000000000000000000600052603260045260246000fd5b7f4552433732313a20696e76616c696420746f6b656e2049440000000000000000600082015250565b6000613bd8601883613128565b9150613be382613ba2565b602082019050919050565b60006020820190508181036000830152613c0781613bcb565b9050919050565b7f4552433732315072657365744d696e7465725061757365724175746f49643a2060008201527f6d7573742068617665206d696e74657220726f6c6520746f206d696e74000000602082015250565b6000613c6a603d83613128565b9150613c7582613c0e565b604082019050919050565b60006020820190508181036000830152613c9981613c5d565b9050919050565b7f4552433732313a2061646472657373207a65726f206973206e6f74206120766160008201527f6c6964206f776e65720000000000000000000000000000000000000000000000602082015250565b6000613cfc602983613128565b9150613d0782613ca0565b604082019050919050565b60006020820190508181036000830152613d2b81613cef565b9050919050565b7f4552433732315072657365744d696e7465725061757365724175746f49643a2060008201527f6d75737420686176652070617573657220726f6c6520746f2070617573650000602082015250565b6000613d8e603e83613128565b9150613d9982613d32565b604082019050919050565b60006020820190508181036000830152613dbd81613d81565b9050919050565b600081905092915050565b6000613dda8261311d565b613de48185613dc4565b9350613df4818560208601613139565b80840191505092915050565b6000613e0c8285613dcf565b9150613e188284613dcf565b91508190509392505050565b7f4552433732313a207472616e736665722066726f6d20696e636f72726563742060008201527f6f776e6572000000000000000000000000000000000000000000000000000000602082015250565b6000613e80602583613128565b9150613e8b82613e24565b604082019050919050565b60006020820190508181036000830152613eaf81613e73565b9050919050565b7f4552433732313a207472616e7366657220746f20746865207a65726f2061646460008201527f7265737300000000000000000000000000000000000000000000000000000000602082015250565b6000613f12602483613128565b9150613f1d82613eb6565b604082019050919050565b60006020820190508181036000830152613f4181613f05565b9050919050565b7f4552433732313a206d696e7420746f20746865207a65726f2061646472657373600082015250565b6000613f7e602083613128565b9150613f8982613f48565b602082019050919050565b60006020820190508181036000830152613fad81613f71565b9050919050565b7f4552433732313a20746f6b656e20616c7265616479206d696e74656400000000600082015250565b6000613fea601c83613128565b9150613ff582613fb4565b602082019050919050565b6000602082019050818103600083015261401981613fdd565b9050919050565b7f4552433732313a20617070726f766520746f2063616c6c657200000000000000600082015250565b6000614056601983613128565b915061406182614020565b602082019050919050565b6000602082019050818103600083015261408581614049565b9050919050565b7f4552433732313a207472616e7366657220746f206e6f6e20455243373231526560008201527f63656976657220696d706c656d656e7465720000000000000000000000000000602082015250565b60006140e8603283613128565b91506140f38261408c565b604082019050919050565b60006020820190508181036000830152614117816140db565b9050919050565b7f4e487b7100000000000000000000000000000000000000000000000000000000600052601260045260246000fd5b7f416363657373436f6e74726f6c3a206163636f756e7420000000000000000000600082015250565b6000614183601783613dc4565b915061418e8261414d565b601782019050919050565b7f206973206d697373696e6720726f6c6520000000000000000000000000000000600082015250565b60006141cf601183613dc4565b91506141da82614199565b601182019050919050565b60006141f082614176565b91506141fc8285613dcf565b9150614207826141c2565b91506142138284613dcf565b91508190509392505050565b7f5061757361626c653a206e6f7420706175736564000000000000000000000000600082015250565b6000614255601483613128565b91506142608261421f565b602082019050919050565b6000602082019050818103600083015261428481614248565b9050919050565b7f5061757361626c653a2070617573656400000000000000000000000000000000600082015250565b60006142c1601083613128565b91506142cc8261428b565b602082019050919050565b600060208201905081810360008301526142f0816142b4565b9050919050565b600081519050919050565b600082825260208201905092915050565b600061431e826142f7565b6143288185614302565b9350614338818560208601613139565b61434181613163565b840191505092915050565b60006080820190506143616000830187613264565b61436e6020830186613264565b61437b60408301856132fa565b818103606083015261438d8184614313565b905095945050505050565b6000815190506143a78161308e565b92915050565b6000602082840312156143c3576143c2613058565b5b60006143d184828501614398565b91505092915050565b7f4552433732315061757361626c653a20746f6b656e207472616e73666572207760008201527f68696c6520706175736564000000000000000000000000000000000000000000602082015250565b6000614436602b83613128565b9150614441826143da565b604082019050919050565b6000602082019050818103600083015261446581614429565b9050919050565b7f4e487b7100000000000000000000000000000000000000000000000000000000600052601160045260246000fd5b60006144a6826131cf565b91506144b1836131cf565b92508282026144bf816131cf565b915082820484148315176144d6576144d561446c565b5b5092915050565b60006144e8826131cf565b91506144f3836131cf565b925082820190508082111561450b5761450a61446c565b5b92915050565b600061451c826131cf565b91506000820361452f5761452e61446c565b5b600182039050919050565b7f537472696e67733a20686578206c656e67746820696e73756666696369656e74600082015250565b6000614570602083613128565b915061457b8261453a565b602082019050919050565b6000602082019050818103600083015261459f81614563565b9050919050565b60006145b1826131cf565b91506145bc836131cf565b92508282039050818111156145d4576145d361446c565b5b92915050565b7f4e487b7100000000000000000000000000000000000000000000000000000000600052603160045260246000fd5b7f455243373231456e756d657261626c653a20636f6e736563757469766520747260008201527f616e7366657273206e6f7420737570706f727465640000000000000000000000602082015250565b6000614665603583613128565b915061467082614609565b604082019050919050565b6000602082019050818103600083015261469481614658565b905091905056fea26469706673582212203572e0c2946d56f7adab59587c565615b33c6264e67c54393d09c88a3722c7f264736f6c63430008120033",
  "devdoc": {
    "details": "{ERC721} token, including:  - ability for holders to burn (destroy) their tokens  - a minter role that allows for token minting (creation)  - a pauser role that allows to stop all token transfers  - token ID and URI autogeneration This contract uses {AccessControl} to lock permissioned functions using the different roles - head to its documentation for details. The account that deploys the contract will be granted the minter and pauser roles, as well as the default admin role, which will let it grant both minter and pauser roles to other accounts. _Deprecated in favor of https://wizard.openzeppelin.com/[Contracts Wizard]._",
    "events": {
      "Approval(address,address,uint256)": {
        "details": "Emitted when `owner` enables `approved` to manage the `tokenId` token."
      },
      "ApprovalForAll(address,address,bool)": {
        "details": "Emitted when `owner` enables or disables (`approved`) `operator` to manage all of its assets."
      },
      "Paused(address)": {
        "details": "Emitted when the pause is triggered by `account`."
      },
      "RoleAdminChanged(bytes32,bytes32,bytes32)": {
        "details": "Emitted when `newAdminRole` is set as ``role``'s admin role, replacing `previousAdminRole` `DEFAULT_ADMIN_ROLE` is the starting admin for all roles, despite {RoleAdminChanged} not being emitted signaling this. _Available since v3.1._"
      },
      "RoleGranted(bytes32,address,address)": {
        "details": "Emitted when `account` is granted `role`. `sender` is the account that originated the contract call, an admin role bearer except when using {AccessControl-_setupRole}."
      },
      "RoleRevoked(bytes32,address,address)": {
        "details": "Emitted when `account` is revoked `role`. `sender` is the account that originated the contract call:   - if using `revokeRole`, it is the admin role bearer   - if using `renounceRole`, it is the role bearer (i.e. `account`)"
      },
      "Transfer(address,address,uint256)": {
        "details": "Emitted when `tokenId` token is transferred from `from` to `to`."
      },
      "Unpaused(address)": {
        "details": "Emitted when the pause is lifted by `account`."
      }
    },
    "kind": "dev",
    "methods": {
      "approve(address,uint256)": {
        "details": "See {IERC721-approve}."
      },
      "balanceOf(address)": {
        "details": "See {IERC721-balanceOf}."
      },
      "burn(uint256)": {
        "details": "Burns `tokenId`. See {ERC721-_burn}. Requirements: - The caller must own `tokenId` or be an approved operator."
      },
      "constructor": {
        "details": "Grants `DEFAULT_ADMIN_ROLE`, `MINTER_ROLE` and `PAUSER_ROLE` to the account that deploys the contract. Token URIs will be autogenerated based on `baseURI` and their token IDs. See {ERC721-tokenURI}."
      },
      "getApproved(uint256)": {
        "details": "See {IERC721-getApproved}."
      },
      "getRoleAdmin(bytes32)": {
        "details": "Returns the admin role that controls `role`. See {grantRole} and {revokeRole}. To change a role's admin, use {_setRoleAdmin}."
      },
      "getRoleMember(bytes32,uint256)": {
        "details": "Returns one of the accounts that have `role`. `index` must be a value between 0 and {getRoleMemberCount}, non-inclusive. Role bearers are not sorted in any particular way, and their ordering may change at any point. WARNING: When using {getRoleMember} and {getRoleMemberCount}, make sure you perform all queries on the same block. See the following https://forum.openzeppelin.com/t/iterating-over-elements-on-enumerableset-in-openzeppelin-contracts/2296[forum post] for more information."
      },
      "getRoleMemberCount(bytes32)": {
        "details": "Returns the number of accounts that have `role`. Can be used together with {getRoleMember} to enumerate all bearers of a role."
      },
      "grantRole(bytes32,address)": {
        "details": "Grants `role` to `account`. If `account` had not been already granted `role`, emits a {RoleGranted} event. Requirements: - the caller must have ``role``'s admin role. May emit a {RoleGranted} event."
      },
      "hasRole(bytes32,address)": {
        "details": "Returns `true` if `account` has been granted `role`."
      },
      "isApprovedForAll(address,address)": {
        "details": "See {IERC721-isApprovedForAll}."
      },
      "mint(address)": {
        "details": "Creates a new token for `to`. Its token ID will be automatically assigned (and available on the emitted {IERC721-Transfer} event), and the token URI autogenerated based on the base URI passed at construction. See {ERC721-_mint}. Requirements: - the caller must have the `MINTER_ROLE`."
      },
      "name()": {
        "details": "See {IERC721Metadata-name}."
      },
      "ownerOf(uint256)": {
        "details": "See {IERC721-ownerOf}."
      },
      "pause()": {
        "details": "Pauses all token transfers. See {ERC721Pausable} and {Pausable-_pause}. Requirements: - the caller must have the `PAUSER_ROLE`."
      },
      "paused()": {
        "details": "Returns true if the contract is paused, and false otherwise."
      },
      "renounceRole(bytes32,address)": {
        "details": "Revokes `role` from the calling account. Roles are often managed via {grantRole} and {revokeRole}: this function's purpose is to provide a mechanism for accounts to lose their privileges if they are compromised (such as when a trusted device is misplaced). If the calling account had been revoked `role`, emits a {RoleRevoked} event. Requirements: - the caller must be `account`. May emit a {RoleRevoked} event."
      },
      "revokeRole(bytes32,address)": {
        "details": "Revokes `role` from `account`. If `account` had been granted `role`, emits a {RoleRevoked} event. Requirements: - the caller must have ``role``'s admin role. May emit a {RoleRevoked} event."
      },
      "safeTransferFrom(address,address,uint256)": {
        "details": "See {IERC721-safeTransferFrom}."
      },
      "safeTransferFrom(address,address,uint256,bytes)": {
        "details": "See {IERC721-safeTransferFrom}."
      },
      "setApprovalForAll(address,bool)": {
        "details": "See {IERC721-setApprovalForAll}."
      },
      "supportsInterface(bytes4)": {
        "details": "See {IERC165-supportsInterface}."
      },
      "symbol()": {
        "details": "See {IERC721Metadata-symbol}."
      },
      "tokenByIndex(uint256)": {
        "details": "See {IERC721Enumerable-tokenByIndex}."
      },
      "tokenOfOwnerByIndex(address,uint256)": {
        "details": "See {IERC721Enumerable-tokenOfOwnerByIndex}."
      },
      "tokenURI(uint256)": {
        "details": "See {IERC721Metadata-tokenURI}."
      },
      "totalSupply()": {
        "details": "See {IERC721Enumerable-totalSupply}."
      },
      "transferFrom(address,address,uint256)": {
        "details": "See {IERC721-transferFrom}."
      },
      "unpause()": {
        "details": "Unpauses all token transfers. See {ERC721Pausable} and {Pausable-_unpause}. Requirements: - the caller must have the `PAUSER_ROLE`."
      }
    },
    "version": 1
  },
  "userdoc": {
    "kind": "user",
    "methods": {},
    "version": 1
  },
  "storageLayout": {
    "storage": [
      {
        "astId": 24,
        "contract": "@openzeppelin/contracts/token/ERC721/presets/ERC721PresetMinterPauserAutoId.sol:ERC721PresetMinterPauserAutoId",
        "label": "_roles",
        "offset": 0,
        "slot": "0",
        "type": "t_mapping(t_bytes32,t_struct(RoleData)19_storage)"
      },
      {
        "astId": 334,
        "contract": "@openzeppelin/contracts/token/ERC721/presets/ERC721PresetMinterPauserAutoId.sol:ERC721PresetMinterPauserAutoId",
        "label": "_roleMembers",
        "offset": 0,
        "slot": "1",
        "type": "t_mapping(t_bytes32,t_struct(AddressSet)4208_storage)"
      },
      {
        "astId": 672,
        "contract": "@openzeppelin/contracts/token/ERC721/presets/ERC721PresetMinterPauserAutoId.sol:ERC721PresetMinterPauserAutoId",
        "label": "_name",
        "offset": 0,
        "slot": "2",
        "type": "t_string_storage"
      },
      {
        "astId": 674,
        "contract": "@openzeppelin/contracts/token/ERC721/presets/ERC721PresetMinterPauserAutoId.sol:ERC721PresetMinterPauserAutoId",
        "label": "_symbol",
        "offset": 0,
        "slot": "3",
        "type": "t_string_storage"
      },
      {
        "astId": 678,
        "contract": "@openzeppelin/contracts/token/ERC721/presets/ERC721PresetMinterPauserAutoId.sol:ERC721PresetMinterPauserAutoId",
        "label": "_owners",
        "offset": 0,
        "slot": "4",
        "type": "t_mapping(t_uint256,t_address)"
      },
      {
        "astId": 682,
        "contract": "@openzeppelin/contracts/token/ERC721/presets/ERC721PresetMinterPauserAutoId.sol:ERC721PresetMinterPauserAutoId",
        "label": "_balances",
        "offset": 0,
        "slot": "5",
        "type": "t_mapping(t_address,t_uint256)"
      },
      {
        "astId": 686,
        "contract": "@openzeppelin/contracts/token/ERC721/presets/ERC721PresetMinterPauserAutoId.sol:ERC721PresetMinterPauserAutoId",
        "label": "_tokenApprovals",
        "offset": 0,
        "slot": "6",
        "type": "t_mapping(t_uint256,t_address)"
      },
      {
        "astId": 692,
        "contract": "@openzeppelin/contracts/token/ERC721/presets/ERC721PresetMinterPauserAutoId.sol:ERC721PresetMinterPauserAutoId",
        "label": "_operatorApprovals",
        "offset": 0,
        "slot": "7",
        "type": "t_mapping(t_address,t_mapping(t_address,t_bool))"
      },
      {
        "astId": 1752,
        "contract": "@openzeppelin/contracts/token/ERC721/presets/ERC721PresetMinterPauserAutoId.sol:ERC721PresetMinterPauserAutoId",
        "label": "_ownedTokens",
        "offset": 0,
        "slot": "8",
        "type": "t_mapping(t_address,t_mapping(t_uint256,t_uint256))"
      },
      {
        "astId": 1756,
        "contract": "@openzeppelin/contracts/token/ERC721/presets/ERC721PresetMinterPauserAutoId.sol:ERC721PresetMinterPauserAutoId",
        "label": "_ownedTokensIndex",
        "offset": 0,
        "slot": "9",
        "type": "t_mapping(t_uint256,t_uint256)"
      },
      {
        "astId": 1759,
        "contract": "@openzeppelin/contracts/token/ERC721/presets/ERC721PresetMinterPauserAutoId.sol:ERC721PresetMinterPauserAutoId",
        "label": "_allTokens",
        "offset": 0,
        "slot": "10",
        "type": "t_array(t_uint256)dyn_storage"
      },
      {
        "astId": 1763,
        "contract": "@openzeppelin/contracts/token/ERC721/presets/ERC721PresetMinterPauserAutoId.sol:ERC721PresetMinterPauserAutoId",
        "label": "_allTokensIndex",
        "offset": 0,
        "slot": "11",
        "type": "t_mapping(t_uint256,t_uint256)"
      },
      {
        "astId": 556,
        "contract": "@openzeppelin/contracts/token/ERC721/presets/ERC721PresetMinterPauserAutoId.sol:ERC721PresetMinterPauserAutoId",
        "label": "_paused",
        "offset": 0,
        "slot": "12",
        "type": "t_bool"
      },
      {
        "astId": 2226,
        "contract": "@openzeppelin/contracts/token/ERC721/presets/ERC721PresetMinterPauserAutoId.sol:ERC721PresetMinterPauserAutoId",
        "label": "_tokenIdTracker",
        "offset": 0,
        "slot": "13",
        "type": "t_struct(Counter)2738_storage"
      },
      {
        "astId": 2228,
        "contract": "@openzeppelin/contracts/token/ERC721/presets/ERC721PresetMinterPauserAutoId.sol:ERC721PresetMinterPauserAutoId",
        "label": "_baseTokenURI",
        "offset": 0,
        "slot": "14",
        "type": "t_string_storage"
      }
    ],
    "types": {
      "t_address": {
        "encoding": "inplace",
        "label": "address",
        "numberOfBytes": "20"
      },
      "t_array(t_bytes32)dyn_storage": {
        "base": "t_bytes32",
        "encoding": "dynamic_array",
        "label": "bytes32[]",
        "numberOfBytes": "32"
      },
      "t_array(t_uint256)dyn_storage": {
        "base": "t_uint256",
        "encoding": "dynamic_array",
        "label": "uint256[]",
        "numberOfBytes": "32"
      },
      "t_bool": {
        "encoding": "inplace",
        "label": "bool",
        "numberOfBytes": "1"
      },
      "t_bytes32": {
        "encoding": "inplace",
        "label": "bytes32",
        "numberOfBytes": "32"
      },
      "t_mapping(t_address,t_bool)": {
        "encoding": "mapping",
        "key": "t_address",
        "label": "mapping(address => bool)",
        "numberOfBytes": "32",
        "value": "t_bool"
      },
      "t_mapping(t_address,t_mapping(t_address,t_bool))": {
        "encoding": "mapping",
        "key": "t_address",
        "label": "mapping(address => mapping(address => bool))",
        "numberOfBytes": "32",
        "value": "t_mapping(t_address,t_bool)"
      },
      "t_mapping(t_address,t_mapping(t_uint256,t_uint256))": {
        "encoding": "mapping",
        "key": "t_address",
        "label": "mapping(address => mapping(uint256 => uint256))",
        "numberOfBytes": "32",
        "value": "t_mapping(t_uint256,t_uint256)"
      },
      "t_mapping(t_address,t_uint256)": {
        "encoding": "mapping",
        "key": "t_address",
        "label": "mapping(address => uint256)",
        "numberOfBytes": "32",
        "value": "t_uint256"
      },
      "t_mapping(t_bytes32,t_struct(AddressSet)4208_storage)": {
        "encoding": "mapping",
        "key": "t_bytes32",
        "label": "mapping(bytes32 => struct EnumerableSet.AddressSet)",
        "numberOfBytes": "32",
        "value": "t_struct(AddressSet)4208_storage"
      },
      "t_mapping(t_bytes32,t_struct(RoleData)19_storage)": {
        "encoding": "mapping",
        "key": "t_bytes32",
        "label": "mapping(bytes32 => struct AccessControl.RoleData)",
        "numberOfBytes": "32",
        "value": "t_struct(RoleData)19_storage"
      },
      "t_mapping(t_bytes32,t_uint256)": {
        "encoding": "mapping",
        "key": "t_bytes32",
        "label": "mapping(bytes32 => uint256)",
        "numberOfBytes": "32",
        "value": "t_uint256"
      },
      "t_mapping(t_uint256,t_address)": {
        "encoding": "mapping",
        "key": "t_uint256",
        "label": "mapping(uint256 => address)",
        "numberOfBytes": "32",
        "value": "t_address"
      },
      "t_mapping(t_uint256,t_uint256)": {
        "encoding": "mapping",
        "key": "t_uint256",
        "label": "mapping(uint256 => uint256)",
        "numberOfBytes": "32",
        "value": "t_uint256"
      },
      "t_string_storage": {
        "encoding": "bytes",
        "label": "string",
        "numberOfBytes": "32"
      },
      "t_struct(AddressSet)4208_storage": {
        "encoding": "inplace",
        "label": "struct EnumerableSet.AddressSet",
        "members": [
          {
            "astId": 4207,
            "contract": "@openzeppelin/contracts/token/ERC721/presets/ERC721PresetMinterPauserAutoId.sol:ERC721PresetMinterPauserAutoId",
            "label": "_inner",
            "offset": 0,
            "slot": "0",
            "type": "t_struct(Set)3893_storage"
          }
        ],
        "numberOfBytes": "64"
      },
      "t_struct(Counter)2738_storage": {
        "encoding": "inplace",
        "label": "struct Counters.Counter",
        "members": [
          {
            "astId": 2737,
            "contract": "@openzeppelin/contracts/token/ERC721/presets/ERC721PresetMinterPauserAutoId.sol:ERC721PresetMinterPauserAutoId",
            "label": "_value",
            "offset": 0,
            "slot": "0",
            "type": "t_uint256"
          }
        ],
        "numberOfBytes": "32"
      },
      "t_struct(RoleData)19_storage": {
        "encoding": "inplace",
        "label": "struct AccessControl.RoleData",
        "members": [
          {
            "astId": 16,
            "contract": "@openzeppelin/contracts/token/ERC721/presets/ERC721PresetMinterPauserAutoId.sol:ERC721PresetMinterPauserAutoId",
            "label": "members",
            "offset": 0,
            "slot": "0",
            "type": "t_mapping(t_address,t_bool)"
          },
          {
            "astId": 18,
            "contract": "@openzeppelin/contracts/token/ERC721/presets/ERC721PresetMinterPauserAutoId.sol:ERC721PresetMinterPauserAutoId",
            "label": "adminRole",
            "offset": 0,
            "slot": "1",
            "type": "t_bytes32"
          }
        ],
        "numberOfBytes": "64"
      },
      "t_struct(Set)3893_storage": {
        "encoding": "inplace",
        "label": "struct EnumerableSet.Set",
        "members": [
          {
            "astId": 3888,
            "contract": "@openzeppelin/contracts/token/ERC721/presets/ERC721PresetMinterPauserAutoId.sol:ERC721PresetMinterPauserAutoId",
            "label": "_values",
            "offset": 0,
            "slot": "0",
            "type": "t_array(t_bytes32)dyn_storage"
          },
          {
            "astId": 3892,
            "contract": "@openzeppelin/contracts/token/ERC721/presets/ERC721PresetMinterPauserAutoId.sol:ERC721PresetMinterPauserAutoId",
            "label": "_indexes",
            "offset": 0,
            "slot": "1",
            "type": "t_mapping(t_bytes32,t_uint256)"
          }
        ],
        "numberOfBytes": "64"
      },
      "t_uint256": {
        "encoding": "inplace",
        "label": "uint256",
        "numberOfBytes": "32"
      }
    }
  }
}