{
  "_format": "hh-sol-artifact-1",
  "contractName": "Hello",
  "sourceName": "contracts/Hello.sol",
  "abi": [
    {
      "inputs": [
        {
          "internalType": "string",
          "name": "_message",
          "type": "string"
        }
      ],
      "stateMutability": "nonpayable",
      "type": "constructor"
    },
    {
      "anonymous": false,
      "inputs": [
        {
          "indexed": false,
          "internalType": "string",
          "name": "message",
          "type": "string"
        }
      ],
      "name": "MessageEvent",
      "type": "event"
    },
    {
      "anonymous": false,
      "inputs": [
        {
          "components": [
            {
              "internalType": "string",
              "name": "message",
              "type": "string"
            },
            {
              "internalType": "uint256",
              "name": "randomNumber",
              "type": "uint256"
            }
          ],
          "indexed": false,
          "internalType": "struct Hello.EventStruct",
          "name": "eventStruct",
          "type": "tuple"
        }
      ],
      "name": "StructEvent",
      "type": "event"
    },
    {
      "inputs": [
        {
          "internalType": "string",
          "name": "_message",
          "type": "string"
        }
      ],
      "name": "message",
      "outputs": [],
      "stateMutability": "nonpayable",
      "type": "function"
    }
  ],
  "bytecode": "0x60806040523480156200001157600080fd5b5060405162000ae138038062000ae1833981810160405281019062000037919062000361565b6200004d816200006560201b620000e31760201c565b6200005e816200010860201b60201c565b506200057f565b62000105816040516024016200007c91906200040f565b6040516020818303038152906040527f41304fac000000000000000000000000000000000000000000000000000000007bffffffffffffffffffffffffffffffffffffffffffffffffffffffff19166020820180517bffffffffffffffffffffffffffffffffffffffffffffffffffffffff8381831617835250505050620001a560201b60201c565b50565b60006064426200011991906200046c565b90507f7ba22a0cbd3226111d8a61812ff4cd1934aace2147b8c59de1ecc9975f7af218826040516200014c91906200040f565b60405180910390a17f159fec0bb2fd4779a18791ece9f4644d57aebf190b6aef145eb075ba448ec4e66040518060400160405280848152602001838152506040516200019991906200055b565b60405180910390a15050565b60008151905060006a636f6e736f6c652e6c6f679050602083016000808483855afa5050505050565b6000604051905090565b600080fd5b600080fd5b600080fd5b600080fd5b6000601f19601f8301169050919050565b7f4e487b7100000000000000000000000000000000000000000000000000000000600052604160045260246000fd5b6200023782620001ec565b810181811067ffffffffffffffff82111715620002595762000258620001fd565b5b80604052505050565b60006200026e620001ce565b90506200027c82826200022c565b919050565b600067ffffffffffffffff8211156200029f576200029e620001fd565b5b620002aa82620001ec565b9050602081019050919050565b60005b83811015620002d7578082015181840152602081019050620002ba565b60008484015250505050565b6000620002fa620002f48462000281565b62000262565b905082815260208101848484011115620003195762000318620001e7565b5b62000326848285620002b7565b509392505050565b600082601f830112620003465762000345620001e2565b5b815162000358848260208601620002e3565b91505092915050565b6000602082840312156200037a5762000379620001d8565b5b600082015167ffffffffffffffff8111156200039b576200039a620001dd565b5b620003a9848285016200032e565b91505092915050565b600081519050919050565b600082825260208201905092915050565b6000620003db82620003b2565b620003e78185620003bd565b9350620003f9818560208601620002b7565b6200040481620001ec565b840191505092915050565b600060208201905081810360008301526200042b8184620003ce565b905092915050565b6000819050919050565b7f4e487b7100000000000000000000000000000000000000000000000000000000600052601160045260246000fd5b6000620004798262000433565b9150620004868362000433565b9250828202620004968162000433565b91508282048414831517620004b057620004af6200043d565b5b5092915050565b600082825260208201905092915050565b6000620004d582620003b2565b620004e18185620004b7565b9350620004f3818560208601620002b7565b620004fe81620001ec565b840191505092915050565b620005148162000433565b82525050565b60006040830160008301518482036000860152620005398282620004c8565b915050602083015162000550602086018262000509565b508091505092915050565b600060208201905081810360008301526200057781846200051a565b905092915050565b610552806200058f6000396000f3fe608060405234801561001057600080fd5b506004361061002b5760003560e01c806305c766d114610030575b600080fd5b61004a600480360381019061004591906102ff565b61004c565b005b600060644261005b9190610381565b90507f7ba22a0cbd3226111d8a61812ff4cd1934aace2147b8c59de1ecc9975f7af2188260405161008c9190610442565b60405180910390a17f159fec0bb2fd4779a18791ece9f4644d57aebf190b6aef145eb075ba448ec4e66040518060400160405280848152602001838152506040516100d791906104fa565b60405180910390a15050565b610179816040516024016100f79190610442565b6040516020818303038152906040527f41304fac000000000000000000000000000000000000000000000000000000007bffffffffffffffffffffffffffffffffffffffffffffffffffffffff19166020820180517bffffffffffffffffffffffffffffffffffffffffffffffffffffffff838183161783525050505061017c565b50565b60008151905060006a636f6e736f6c652e6c6f679050602083016000808483855afa5050505050565b6000604051905090565b600080fd5b600080fd5b600080fd5b600080fd5b6000601f19601f8301169050919050565b7f4e487b7100000000000000000000000000000000000000000000000000000000600052604160045260246000fd5b61020c826101c3565b810181811067ffffffffffffffff8211171561022b5761022a6101d4565b5b80604052505050565b600061023e6101a5565b905061024a8282610203565b919050565b600067ffffffffffffffff82111561026a576102696101d4565b5b610273826101c3565b9050602081019050919050565b82818337600083830152505050565b60006102a261029d8461024f565b610234565b9050828152602081018484840111156102be576102bd6101be565b5b6102c9848285610280565b509392505050565b600082601f8301126102e6576102e56101b9565b5b81356102f684826020860161028f565b91505092915050565b600060208284031215610315576103146101af565b5b600082013567ffffffffffffffff811115610333576103326101b4565b5b61033f848285016102d1565b91505092915050565b6000819050919050565b7f4e487b7100000000000000000000000000000000000000000000000000000000600052601160045260246000fd5b600061038c82610348565b915061039783610348565b92508282026103a581610348565b915082820484148315176103bc576103bb610352565b5b5092915050565b600081519050919050565b600082825260208201905092915050565b60005b838110156103fd5780820151818401526020810190506103e2565b60008484015250505050565b6000610414826103c3565b61041e81856103ce565b935061042e8185602086016103df565b610437816101c3565b840191505092915050565b6000602082019050818103600083015261045c8184610409565b905092915050565b600082825260208201905092915050565b6000610480826103c3565b61048a8185610464565b935061049a8185602086016103df565b6104a3816101c3565b840191505092915050565b6104b781610348565b82525050565b600060408301600083015184820360008601526104da8282610475565b91505060208301516104ef60208601826104ae565b508091505092915050565b6000602082019050818103600083015261051481846104bd565b90509291505056fea2646970667358221220fd711c2039a48a2b424dc88e70d35065920e4e8512a17862774f76b0a983b97a64736f6c63430008120033",
  "linkReferences": {},
  "deployedLinkReferences": {}
}